{"contracts/LeveragedYieldFarm.sol":{"LeveragedYieldFarm":{"abi":[{"inputs":[],"stateMutability":"nonpayable","type":"constructor"},{"stateMutability":"nonpayable","type":"fallback"},{"inputs":[{"internalType":"address","name":"_tokenAddress","type":"address"}],"name":"claimRewards","outputs":[],"stateMutability":"nonpayable","type":"function"},{"inputs":[{"internalType":"uint256","name":"initialAmount","type":"uint256"}],"name":"deposit","outputs":[{"internalType":"bool","name":"","type":"bool"}],"stateMutability":"nonpayable","type":"function"},{"inputs":[{"internalType":"address","name":"_tokenAddress","type":"address"}],"name":"getOutstandingRewards","outputs":[{"components":[{"internalType":"address","name":"emissionToken","type":"address"},{"internalType":"uint256","name":"totalAmount","type":"uint256"},{"internalType":"uint256","name":"supplySide","type":"uint256"},{"internalType":"uint256","name":"borrowSide","type":"uint256"}],"internalType":"struct IMultiRewardDistributor.RewardInfo[]","name":"","type":"tuple[]"}],"stateMutability":"view","type":"function"},{"inputs":[{"internalType":"contract IERC20[]","name":"tokens","type":"address[]"},{"internalType":"uint256[]","name":"amounts","type":"uint256[]"},{"internalType":"uint256[]","name":"feeAmounts","type":"uint256[]"},{"internalType":"bytes","name":"userData","type":"bytes"}],"name":"receiveFlashLoan","outputs":[],"stateMutability":"nonpayable","type":"function"},{"inputs":[{"internalType":"uint256","name":"initialAmount","type":"uint256"}],"name":"withdraw","outputs":[{"internalType":"bool","name":"","type":"bool"}],"stateMutability":"nonpayable","type":"function"},{"inputs":[{"internalType":"address","name":"_tokenAddress","type":"address"}],"name":"withdrawToken","outputs":[],"stateMutability":"nonpayable","type":"function"}],"evm":{"bytecode":{"linkReferences":{},"object":"60a06040523480156200001157600080fd5b503373ffffffffffffffffffffffffffffffffffffffff1660808173ffffffffffffffffffffffffffffffffffffffff16815250506000600167ffffffffffffffff81111562000066576200006562000208565b5b604051908082528060200260200182016040528015620000955781602001602082028036833780820191505090505b50905073edc817a28e8b93b03976fbd4a3ddbc9f7d176c2281600081518110620000c457620000c362000237565b5b602002602001019073ffffffffffffffffffffffffffffffffffffffff16908173ffffffffffffffffffffffffffffffffffffffff1681525050600073fbb21d0380bee3312b33c4353c8936a0f13ef26c73ffffffffffffffffffffffffffffffffffffffff1663c2998238836040518263ffffffff1660e01b81526004016200014f919062000368565b6000604051808303816000875af11580156200016f573d6000803e3d6000fd5b505050506040513d6000823e3d601f19601f820116820180604052508101906200019a919062000521565b9050600081600081518110620001b557620001b462000237565b5b60200260200101511462000200576040517f08c379a0000000000000000000000000000000000000000000000000000000008152600401620001f790620005d3565b60405180910390fd5b5050620005f5565b7f4e487b7100000000000000000000000000000000000000000000000000000000600052604160045260246000fd5b7f4e487b7100000000000000000000000000000000000000000000000000000000600052603260045260246000fd5b600081519050919050565b600082825260208201905092915050565b6000819050602082019050919050565b600073ffffffffffffffffffffffffffffffffffffffff82169050919050565b6000620002bf8262000292565b9050919050565b620002d181620002b2565b82525050565b6000620002e58383620002c6565b60208301905092915050565b6000602082019050919050565b60006200030b8262000266565b62000317818562000271565b9350620003248362000282565b8060005b838110156200035b5781516200033f8882620002d7565b97506200034c83620002f1565b92505060018101905062000328565b5085935050505092915050565b60006020820190508181036000830152620003848184620002fe565b905092915050565b6000604051905090565b600080fd5b600080fd5b600080fd5b6000601f19601f8301169050919050565b620003c182620003a5565b810181811067ffffffffffffffff82111715620003e357620003e262000208565b5b80604052505050565b6000620003f86200038c565b9050620004068282620003b6565b919050565b600067ffffffffffffffff82111562000429576200042862000208565b5b602082029050602081019050919050565b600080fd5b6000819050919050565b62000454816200043f565b81146200046057600080fd5b50565b600081519050620004748162000449565b92915050565b6000620004916200048b846200040b565b620003ec565b90508083825260208201905060208402830185811115620004b757620004b66200043a565b5b835b81811015620004e45780620004cf888262000463565b845260208401935050602081019050620004b9565b5050509392505050565b600082601f830112620005065762000505620003a0565b5b8151620005188482602086016200047a565b91505092915050565b6000602082840312156200053a576200053962000396565b5b600082015167ffffffffffffffff8111156200055b576200055a6200039b565b5b6200056984828501620004ee565b91505092915050565b600082825260208201905092915050565b7f436f6d7074726f6c6c65722e656e7465724d61726b657473206661696c65642e600082015250565b6000620005bb60208362000572565b9150620005c88262000583565b602082019050919050565b60006020820190508181036000830152620005ee81620005ac565b9050919050565b60805161259b6200063b6000396000818161015401528181610393015281816104d3015281816105f001528181610718015281816107a1015261092c015261259b6000f3fe608060405234801561001057600080fd5b50600436106100665760003560e01c80632e1a7d4d1461006c578063894760691461009c578063b6b55f25146100b8578063bce3b836146100e8578063ef5cfb8c14610118578063f04f27071461013457610067565b5b600080fd5b61008660048036038101906100819190611475565b610150565b60405161009391906114bd565b60405180910390f35b6100b660048036038101906100b19190611536565b6105ee565b005b6100d260048036038101906100cd9190611475565b61079d565b6040516100df91906114bd565b60405180910390f35b61010260048036038101906100fd9190611536565b61088c565b60405161010f9190611685565b60405180910390f35b610132600480360381019061012d9190611536565b61092a565b005b61014e600480360381019061014991906119b6565b610ada565b005b60007f000000000000000000000000000000000000000000000000000000000000000073ffffffffffffffffffffffffffffffffffffffff163373ffffffffffffffffffffffffffffffffffffffff16146101e0576040517f08c379a00000000000000000000000000000000000000000000000000000000081526004016101d790611b10565b60405180910390fd5b60006003600a846101f19190611b5f565b6101fb9190611bd0565b90506000838261020b9190611c01565b9050600061022f73833589fcd6edb6e08f4c7c32d4f71b54bda02913838584610d6a565b6000600167ffffffffffffffff81111561024c5761024b6116bd565b5b60405190808252806020026020018201604052801561027a5781602001602082028036833780820191505090505b50905073edc817a28e8b93b03976fbd4a3ddbc9f7d176c22816000815181106102a6576102a5611c35565b5b602002602001019073ffffffffffffffffffffffffffffffffffffffff16908173ffffffffffffffffffffffffffffffffffffffff168152505073fbb21d0380bee3312b33c4353c8936a0f13ef26c73ffffffffffffffffffffffffffffffffffffffff16633685ffe730836040518363ffffffff1660e01b815260040161032f929190611d22565b600060405180830381600087803b15801561034957600080fd5b505af115801561035d573d6000803e3d6000fd5b5050505073a88594d404727625a9437c3f886c7643872296ae73ffffffffffffffffffffffffffffffffffffffff1663a9059cbb7f000000000000000000000000000000000000000000000000000000000000000073a88594d404727625a9437c3f886c7643872296ae73ffffffffffffffffffffffffffffffffffffffff166370a08231306040518263ffffffff1660e01b81526004016103ff9190611d52565b602060405180830381865afa15801561041c573d6000803e3d6000fd5b505050506040513d601f19601f820116820180604052508101906104409190611d82565b6040518363ffffffff1660e01b815260040161045d929190611dbe565b6020604051808303816000875af115801561047c573d6000803e3d6000fd5b505050506040513d601f19601f820116820180604052508101906104a09190611e13565b5073833589fcd6edb6e08f4c7c32d4f71b54bda0291373ffffffffffffffffffffffffffffffffffffffff1663a9059cbb7f000000000000000000000000000000000000000000000000000000000000000073833589fcd6edb6e08f4c7c32d4f71b54bda0291373ffffffffffffffffffffffffffffffffffffffff166370a08231306040518263ffffffff1660e01b815260040161053f9190611d52565b602060405180830381865afa15801561055c573d6000803e3d6000fd5b505050506040513d601f19601f820116820180604052508101906105809190611d82565b6040518363ffffffff1660e01b815260040161059d929190611dbe565b6020604051808303816000875af11580156105bc573d6000803e3d6000fd5b505050506040513d601f19601f820116820180604052508101906105e09190611e13565b506001945050505050919050565b7f000000000000000000000000000000000000000000000000000000000000000073ffffffffffffffffffffffffffffffffffffffff163373ffffffffffffffffffffffffffffffffffffffff161461067c576040517f08c379a000000000000000000000000000000000000000000000000000000000815260040161067390611b10565b60405180910390fd5b60008173ffffffffffffffffffffffffffffffffffffffff166370a08231306040518263ffffffff1660e01b81526004016106b79190611d52565b602060405180830381865afa1580156106d4573d6000803e3d6000fd5b505050506040513d601f19601f820116820180604052508101906106f89190611d82565b90508173ffffffffffffffffffffffffffffffffffffffff1663a9059cbb7f0000000000000000000000000000000000000000000000000000000000000000836040518363ffffffff1660e01b8152600401610755929190611dbe565b6020604051808303816000875af1158015610774573d6000803e3d6000fd5b505050506040513d601f19601f820116820180604052508101906107989190611e13565b505050565b60007f000000000000000000000000000000000000000000000000000000000000000073ffffffffffffffffffffffffffffffffffffffff163373ffffffffffffffffffffffffffffffffffffffff161461082d576040517f08c379a000000000000000000000000000000000000000000000000000000000815260040161082490611b10565b60405180910390fd5b60006003600a8461083e9190611b5f565b6108489190611bd0565b9050600083826108589190611c01565b905060006001905061088073833589fcd6edb6e08f4c7c32d4f71b54bda02913838584610d6a565b60019350505050919050565b606073e9005b078701e2a0948d2eac43010d35870ad9d273ffffffffffffffffffffffffffffffffffffffff166307e8ce8583306040518363ffffffff1660e01b81526004016108dd929190611e9f565b600060405180830381865afa1580156108fa573d6000803e3d6000fd5b505050506040513d6000823e3d601f19601f82011682018060405250810190610923919061201d565b9050919050565b7f000000000000000000000000000000000000000000000000000000000000000073ffffffffffffffffffffffffffffffffffffffff163373ffffffffffffffffffffffffffffffffffffffff16146109b8576040517f08c379a00000000000000000000000000000000000000000000000000000000081526004016109af90611b10565b60405180910390fd5b6000600167ffffffffffffffff8111156109d5576109d46116bd565b5b604051908082528060200260200182016040528015610a035781602001602082028036833780820191505090505b5090508181600081518110610a1b57610a1a611c35565b5b602002602001019073ffffffffffffffffffffffffffffffffffffffff16908173ffffffffffffffffffffffffffffffffffffffff168152505073fbb21d0380bee3312b33c4353c8936a0f13ef26c73ffffffffffffffffffffffffffffffffffffffff16633685ffe730836040518363ffffffff1660e01b8152600401610aa4929190611d22565b600060405180830381600087803b158015610abe57600080fd5b505af1158015610ad2573d6000803e3d6000fd5b505050505050565b73ba12222222228d8ba445958a75a0704d566bf2c873ffffffffffffffffffffffffffffffffffffffff163373ffffffffffffffffffffffffffffffffffffffff1614610b5c576040517f08c379a0000000000000000000000000000000000000000000000000000000008152600401610b53906120d8565b60405180910390fd5b600081806020019051810190610b729190612170565b90506000816000015173ffffffffffffffffffffffffffffffffffffffff166370a08231306040518263ffffffff1660e01b8152600401610bb39190611d52565b602060405180830381865afa158015610bd0573d6000803e3d6000fd5b505050506040513d601f19601f82011682018060405250810190610bf49190611d82565b905083600081518110610c0a57610c09611c35565b5b60200260200101518260200151610c21919061219d565b811015610c63576040517f08c379a0000000000000000000000000000000000000000000000000000000008152600401610c5a90612243565b60405180910390fd5b600115158260600151151503610c8757610c8582604001518360200151610f60565b505b600015158260600151151503610ca157610c9f611135565b505b816000015173ffffffffffffffffffffffffffffffffffffffff1663a9059cbb73ba12222222228d8ba445958a75a0704d566bf2c886600081518110610cea57610ce9611c35565b5b60200260200101518560200151610d01919061219d565b6040518363ffffffff1660e01b8152600401610d1e929190611dbe565b6020604051808303816000875af1158015610d3d573d6000803e3d6000fd5b505050506040513d601f19601f82011682018060405250810190610d619190611e13565b50505050505050565b600060405180608001604052808673ffffffffffffffffffffffffffffffffffffffff168152602001858152602001848152602001831515815250604051602001610db591906122c7565b60405160208183030381529060405290506000600167ffffffffffffffff811115610de357610de26116bd565b5b604051908082528060200260200182016040528015610e115781602001602082028036833780820191505090505b5090508581600081518110610e2957610e28611c35565b5b602002602001019073ffffffffffffffffffffffffffffffffffffffff16908173ffffffffffffffffffffffffffffffffffffffff16815250506000600167ffffffffffffffff811115610e8057610e7f6116bd565b5b604051908082528060200260200182016040528015610eae5781602001602082028036833780820191505090505b5090508581600081518110610ec657610ec5611c35565b5b60200260200101818152505073ba12222222228d8ba445958a75a0704d566bf2c873ffffffffffffffffffffffffffffffffffffffff16635c38449e308484876040518563ffffffff1660e01b8152600401610f2594939291906124f0565b600060405180830381600087803b158015610f3f57600080fd5b505af1158015610f53573d6000803e3d6000fd5b5050505050505050505050565b600073833589fcd6edb6e08f4c7c32d4f71b54bda0291373ffffffffffffffffffffffffffffffffffffffff1663095ea7b373edc817a28e8b93b03976fbd4a3ddbc9f7d176c22856040518363ffffffff1660e01b8152600401610fc5929190611dbe565b6020604051808303816000875af1158015610fe4573d6000803e3d6000fd5b505050506040513d601f19601f820116820180604052508101906110089190611e13565b5073edc817a28e8b93b03976fbd4a3ddbc9f7d176c2273ffffffffffffffffffffffffffffffffffffffff1663a0712d68846040518263ffffffff1660e01b8152600401611056919061254a565b6020604051808303816000875af1158015611075573d6000803e3d6000fd5b505050506040513d601f19601f820116820180604052508101906110999190611d82565b5073edc817a28e8b93b03976fbd4a3ddbc9f7d176c2273ffffffffffffffffffffffffffffffffffffffff1663c5ebeaec836040518263ffffffff1660e01b81526004016110e7919061254a565b6020604051808303816000875af1158015611106573d6000803e3d6000fd5b505050506040513d601f19601f8201168201806040525081019061112a9190611d82565b506001905092915050565b60008073edc817a28e8b93b03976fbd4a3ddbc9f7d176c2273ffffffffffffffffffffffffffffffffffffffff166317bfdfbc306040518263ffffffff1660e01b81526004016111859190611d52565b6020604051808303816000875af11580156111a4573d6000803e3d6000fd5b505050506040513d601f19601f820116820180604052508101906111c89190611d82565b905073833589fcd6edb6e08f4c7c32d4f71b54bda0291373ffffffffffffffffffffffffffffffffffffffff1663095ea7b373edc817a28e8b93b03976fbd4a3ddbc9f7d176c22836040518363ffffffff1660e01b815260040161122d929190611dbe565b6020604051808303816000875af115801561124c573d6000803e3d6000fd5b505050506040513d601f19601f820116820180604052508101906112709190611e13565b5073edc817a28e8b93b03976fbd4a3ddbc9f7d176c2273ffffffffffffffffffffffffffffffffffffffff16630e752702826040518263ffffffff1660e01b81526004016112be919061254a565b6020604051808303816000875af11580156112dd573d6000803e3d6000fd5b505050506040513d601f19601f820116820180604052508101906113019190611d82565b5073edc817a28e8b93b03976fbd4a3ddbc9f7d176c2273ffffffffffffffffffffffffffffffffffffffff166370a08231306040518263ffffffff1660e01b815260040161134f9190611d52565b602060405180830381865afa15801561136c573d6000803e3d6000fd5b505050506040513d601f19601f820116820180604052508101906113909190611d82565b905073edc817a28e8b93b03976fbd4a3ddbc9f7d176c2273ffffffffffffffffffffffffffffffffffffffff1663db006a75826040518263ffffffff1660e01b81526004016113df919061254a565b6020604051808303816000875af11580156113fe573d6000803e3d6000fd5b505050506040513d601f19601f820116820180604052508101906114229190611d82565b50600191505090565b6000604051905090565b600080fd5b600080fd5b6000819050919050565b6114528161143f565b811461145d57600080fd5b50565b60008135905061146f81611449565b92915050565b60006020828403121561148b5761148a611435565b5b600061149984828501611460565b91505092915050565b60008115159050919050565b6114b7816114a2565b82525050565b60006020820190506114d260008301846114ae565b92915050565b600073ffffffffffffffffffffffffffffffffffffffff82169050919050565b6000611503826114d8565b9050919050565b611513816114f8565b811461151e57600080fd5b50565b6000813590506115308161150a565b92915050565b60006020828403121561154c5761154b611435565b5b600061155a84828501611521565b91505092915050565b600081519050919050565b600082825260208201905092915050565b6000819050602082019050919050565b611598816114f8565b82525050565b6115a78161143f565b82525050565b6080820160008201516115c3600085018261158f565b5060208201516115d6602085018261159e565b5060408201516115e9604085018261159e565b5060608201516115fc606085018261159e565b50505050565b600061160e83836115ad565b60808301905092915050565b6000602082019050919050565b600061163282611563565b61163c818561156e565b93506116478361157f565b8060005b8381101561167857815161165f8882611602565b975061166a8361161a565b92505060018101905061164b565b5085935050505092915050565b6000602082019050818103600083015261169f8184611627565b905092915050565b600080fd5b6000601f19601f8301169050919050565b7f4e487b7100000000000000000000000000000000000000000000000000000000600052604160045260246000fd5b6116f5826116ac565b810181811067ffffffffffffffff82111715611714576117136116bd565b5b80604052505050565b600061172761142b565b905061173382826116ec565b919050565b600067ffffffffffffffff821115611753576117526116bd565b5b602082029050602081019050919050565b600080fd5b6000611774826114f8565b9050919050565b61178481611769565b811461178f57600080fd5b50565b6000813590506117a18161177b565b92915050565b60006117ba6117b584611738565b61171d565b905080838252602082019050602084028301858111156117dd576117dc611764565b5b835b8181101561180657806117f28882611792565b8452602084019350506020810190506117df565b5050509392505050565b600082601f830112611825576118246116a7565b5b81356118358482602086016117a7565b91505092915050565b600067ffffffffffffffff821115611859576118586116bd565b5b602082029050602081019050919050565b600061187d6118788461183e565b61171d565b905080838252602082019050602084028301858111156118a05761189f611764565b5b835b818110156118c957806118b58882611460565b8452602084019350506020810190506118a2565b5050509392505050565b600082601f8301126118e8576118e76116a7565b5b81356118f884826020860161186a565b91505092915050565b600080fd5b600067ffffffffffffffff821115611921576119206116bd565b5b61192a826116ac565b9050602081019050919050565b82818337600083830152505050565b600061195961195484611906565b61171d565b90508281526020810184848401111561197557611974611901565b5b611980848285611937565b509392505050565b600082601f83011261199d5761199c6116a7565b5b81356119ad848260208601611946565b91505092915050565b600080600080608085870312156119d0576119cf611435565b5b600085013567ffffffffffffffff8111156119ee576119ed61143a565b5b6119fa87828801611810565b945050602085013567ffffffffffffffff811115611a1b57611a1a61143a565b5b611a27878288016118d3565b935050604085013567ffffffffffffffff811115611a4857611a4761143a565b5b611a54878288016118d3565b925050606085013567ffffffffffffffff811115611a7557611a7461143a565b5b611a8187828801611988565b91505092959194509250565b600082825260208201905092915050565b7f4c65766572616765645969656c644661726d3a2063616c6c6572206973206e6f60008201527f7420746865206f776e6572210000000000000000000000000000000000000000602082015250565b6000611afa602c83611a8d565b9150611b0582611a9e565b604082019050919050565b60006020820190508181036000830152611b2981611aed565b9050919050565b7f4e487b7100000000000000000000000000000000000000000000000000000000600052601160045260246000fd5b6000611b6a8261143f565b9150611b758361143f565b9250828202611b838161143f565b91508282048414831517611b9a57611b99611b30565b5b5092915050565b7f4e487b7100000000000000000000000000000000000000000000000000000000600052601260045260246000fd5b6000611bdb8261143f565b9150611be68361143f565b925082611bf657611bf5611ba1565b5b828204905092915050565b6000611c0c8261143f565b9150611c178361143f565b9250828203905081811115611c2f57611c2e611b30565b5b92915050565b7f4e487b7100000000000000000000000000000000000000000000000000000000600052603260045260246000fd5b611c6d816114f8565b82525050565b600081519050919050565b600082825260208201905092915050565b6000819050602082019050919050565b6000611cab838361158f565b60208301905092915050565b6000602082019050919050565b6000611ccf82611c73565b611cd98185611c7e565b9350611ce483611c8f565b8060005b83811015611d15578151611cfc8882611c9f565b9750611d0783611cb7565b925050600181019050611ce8565b5085935050505092915050565b6000604082019050611d376000830185611c64565b8181036020830152611d498184611cc4565b90509392505050565b6000602082019050611d676000830184611c64565b92915050565b600081519050611d7c81611449565b92915050565b600060208284031215611d9857611d97611435565b5b6000611da684828501611d6d565b91505092915050565b611db88161143f565b82525050565b6000604082019050611dd36000830185611c64565b611de06020830184611daf565b9392505050565b611df0816114a2565b8114611dfb57600080fd5b50565b600081519050611e0d81611de7565b92915050565b600060208284031215611e2957611e28611435565b5b6000611e3784828501611dfe565b91505092915050565b6000819050919050565b6000611e65611e60611e5b846114d8565b611e40565b6114d8565b9050919050565b6000611e7782611e4a565b9050919050565b6000611e8982611e6c565b9050919050565b611e9981611e7e565b82525050565b6000604082019050611eb46000830185611e90565b611ec16020830184611c64565b9392505050565b600067ffffffffffffffff821115611ee357611ee26116bd565b5b602082029050602081019050919050565b600080fd5b600081519050611f088161150a565b92915050565b600060808284031215611f2457611f23611ef4565b5b611f2e608061171d565b90506000611f3e84828501611ef9565b6000830152506020611f5284828501611d6d565b6020830152506040611f6684828501611d6d565b6040830152506060611f7a84828501611d6d565b60608301525092915050565b6000611f99611f9484611ec8565b61171d565b90508083825260208201905060808402830185811115611fbc57611fbb611764565b5b835b81811015611fe55780611fd18882611f0e565b845260208401935050608081019050611fbe565b5050509392505050565b600082601f830112612004576120036116a7565b5b8151612014848260208601611f86565b91505092915050565b60006020828403121561203357612032611435565b5b600082015167ffffffffffffffff8111156120515761205061143a565b5b61205d84828501611fef565b91505092915050565b7f4c65766572616765645969656c644661726d3a204e6f742042616c616e63657260008201527f2100000000000000000000000000000000000000000000000000000000000000602082015250565b60006120c2602183611a8d565b91506120cd82612066565b604082019050919050565b600060208201905081810360008301526120f1816120b5565b9050919050565b60006080828403121561210e5761210d611ef4565b5b612118608061171d565b9050600061212884828501611ef9565b600083015250602061213c84828501611d6d565b602083015250604061215084828501611d6d565b604083015250606061216484828501611dfe565b60608301525092915050565b60006080828403121561218657612185611435565b5b6000612194848285016120f8565b91505092915050565b60006121a88261143f565b91506121b38361143f565b92508282019050808211156121cb576121ca611b30565b5b92915050565b7f4c65766572616765645969656c644661726d3a204e6f7420656e6f756768206660008201527f756e647320746f2072657061792042616c616e636572206c6f616e2100000000602082015250565b600061222d603c83611a8d565b9150612238826121d1565b604082019050919050565b6000602082019050818103600083015261225c81612220565b9050919050565b61226c816114a2565b82525050565b608082016000820151612288600085018261158f565b50602082015161229b602085018261159e565b5060408201516122ae604085018261159e565b5060608201516122c16060850182612263565b50505050565b60006080820190506122dc6000830184612272565b92915050565b60006122ed82611e6c565b9050919050565b6122fd816122e2565b82525050565b600081519050919050565b6000819050602082019050919050565b600061232982611e6c565b9050919050565b6123398161231e565b82525050565b600061234b8383612330565b60208301905092915050565b6000602082019050919050565b600061236f82612303565b6123798185611c7e565b93506123848361230e565b8060005b838110156123b557815161239c888261233f565b97506123a783612357565b925050600181019050612388565b5085935050505092915050565b600081519050919050565b600082825260208201905092915050565b6000819050602082019050919050565b60006123fa838361159e565b60208301905092915050565b6000602082019050919050565b600061241e826123c2565b61242881856123cd565b9350612433836123de565b8060005b8381101561246457815161244b88826123ee565b975061245683612406565b925050600181019050612437565b5085935050505092915050565b600081519050919050565b600082825260208201905092915050565b60005b838110156124ab578082015181840152602081019050612490565b60008484015250505050565b60006124c282612471565b6124cc818561247c565b93506124dc81856020860161248d565b6124e5816116ac565b840191505092915050565b600060808201905061250560008301876122f4565b81810360208301526125178186612364565b9050818103604083015261252b8185612413565b9050818103606083015261253f81846124b7565b905095945050505050565b600060208201905061255f6000830184611daf565b9291505056fea264697066735822122081be7ea7df0ebae28762498bb1f2b508acfac9c1eae0c5502553034de403f8f164736f6c63430008120033","opcodes":"PUSH1 0xA0 PUSH1 0x40 MSTORE CALLVALUE DUP1 ISZERO PUSH3 0x11 JUMPI PUSH1 0x0 DUP1 REVERT JUMPDEST POP CALLER PUSH20 0xFFFFFFFFFFFFFFFFFFFFFFFFFFFFFFFFFFFFFFFF AND PUSH1 0x80 DUP2 PUSH20 0xFFFFFFFFFFFFFFFFFFFFFFFFFFFFFFFFFFFFFFFF AND DUP2 MSTORE POP POP PUSH1 0x0 PUSH1 0x1 PUSH8 0xFFFFFFFFFFFFFFFF DUP2 GT ISZERO PUSH3 0x66 JUMPI PUSH3 0x65 PUSH3 0x208 JUMP JUMPDEST JUMPDEST PUSH1 0x40 MLOAD SWAP1 DUP1 DUP3 MSTORE DUP1 PUSH1 0x20 MUL PUSH1 0x20 ADD DUP3 ADD PUSH1 0x40 MSTORE DUP1 ISZERO PUSH3 0x95 JUMPI DUP2 PUSH1 0x20 ADD PUSH1 0x20 DUP3 MUL DUP1 CALLDATASIZE DUP4 CALLDATACOPY DUP1 DUP3 ADD SWAP2 POP POP SWAP1 POP JUMPDEST POP SWAP1 POP PUSH20 0xEDC817A28E8B93B03976FBD4A3DDBC9F7D176C22 DUP2 PUSH1 0x0 DUP2 MLOAD DUP2 LT PUSH3 0xC4 JUMPI PUSH3 0xC3 PUSH3 0x237 JUMP JUMPDEST JUMPDEST PUSH1 0x20 MUL PUSH1 0x20 ADD ADD SWAP1 PUSH20 0xFFFFFFFFFFFFFFFFFFFFFFFFFFFFFFFFFFFFFFFF AND SWAP1 DUP2 PUSH20 0xFFFFFFFFFFFFFFFFFFFFFFFFFFFFFFFFFFFFFFFF AND DUP2 MSTORE POP POP PUSH1 0x0 PUSH20 0xFBB21D0380BEE3312B33C4353C8936A0F13EF26C PUSH20 0xFFFFFFFFFFFFFFFFFFFFFFFFFFFFFFFFFFFFFFFF AND PUSH4 0xC2998238 DUP4 PUSH1 0x40 MLOAD DUP3 PUSH4 0xFFFFFFFF AND PUSH1 0xE0 SHL DUP2 MSTORE PUSH1 0x4 ADD PUSH3 0x14F SWAP2 SWAP1 PUSH3 0x368 JUMP JUMPDEST PUSH1 0x0 PUSH1 0x40 MLOAD DUP1 DUP4 SUB DUP2 PUSH1 0x0 DUP8 GAS CALL ISZERO DUP1 ISZERO PUSH3 0x16F JUMPI RETURNDATASIZE PUSH1 0x0 DUP1 RETURNDATACOPY RETURNDATASIZE PUSH1 0x0 REVERT JUMPDEST POP POP POP POP PUSH1 0x40 MLOAD RETURNDATASIZE PUSH1 0x0 DUP3 RETURNDATACOPY RETURNDATASIZE PUSH1 0x1F NOT PUSH1 0x1F DUP3 ADD AND DUP3 ADD DUP1 PUSH1 0x40 MSTORE POP DUP2 ADD SWAP1 PUSH3 0x19A SWAP2 SWAP1 PUSH3 0x521 JUMP JUMPDEST SWAP1 POP PUSH1 0x0 DUP2 PUSH1 0x0 DUP2 MLOAD DUP2 LT PUSH3 0x1B5 JUMPI PUSH3 0x1B4 PUSH3 0x237 JUMP JUMPDEST JUMPDEST PUSH1 0x20 MUL PUSH1 0x20 ADD ADD MLOAD EQ PUSH3 0x200 JUMPI PUSH1 0x40 MLOAD PUSH32 0x8C379A000000000000000000000000000000000000000000000000000000000 DUP2 MSTORE PUSH1 0x4 ADD PUSH3 0x1F7 SWAP1 PUSH3 0x5D3 JUMP JUMPDEST PUSH1 0x40 MLOAD DUP1 SWAP2 SUB SWAP1 REVERT JUMPDEST POP POP PUSH3 0x5F5 JUMP JUMPDEST PUSH32 0x4E487B7100000000000000000000000000000000000000000000000000000000 PUSH1 0x0 MSTORE PUSH1 0x41 PUSH1 0x4 MSTORE PUSH1 0x24 PUSH1 0x0 REVERT JUMPDEST PUSH32 0x4E487B7100000000000000000000000000000000000000000000000000000000 PUSH1 0x0 MSTORE PUSH1 0x32 PUSH1 0x4 MSTORE PUSH1 0x24 PUSH1 0x0 REVERT JUMPDEST PUSH1 0x0 DUP2 MLOAD SWAP1 POP SWAP2 SWAP1 POP JUMP JUMPDEST PUSH1 0x0 DUP3 DUP3 MSTORE PUSH1 0x20 DUP3 ADD SWAP1 POP SWAP3 SWAP2 POP POP JUMP JUMPDEST PUSH1 0x0 DUP2 SWAP1 POP PUSH1 0x20 DUP3 ADD SWAP1 POP SWAP2 SWAP1 POP JUMP JUMPDEST PUSH1 0x0 PUSH20 0xFFFFFFFFFFFFFFFFFFFFFFFFFFFFFFFFFFFFFFFF DUP3 AND SWAP1 POP SWAP2 SWAP1 POP JUMP JUMPDEST PUSH1 0x0 PUSH3 0x2BF DUP3 PUSH3 0x292 JUMP JUMPDEST SWAP1 POP SWAP2 SWAP1 POP JUMP JUMPDEST PUSH3 0x2D1 DUP2 PUSH3 0x2B2 JUMP JUMPDEST DUP3 MSTORE POP POP JUMP JUMPDEST PUSH1 0x0 PUSH3 0x2E5 DUP4 DUP4 PUSH3 0x2C6 JUMP JUMPDEST PUSH1 0x20 DUP4 ADD SWAP1 POP SWAP3 SWAP2 POP POP JUMP JUMPDEST PUSH1 0x0 PUSH1 0x20 DUP3 ADD SWAP1 POP SWAP2 SWAP1 POP JUMP JUMPDEST PUSH1 0x0 PUSH3 0x30B DUP3 PUSH3 0x266 JUMP JUMPDEST PUSH3 0x317 DUP2 DUP6 PUSH3 0x271 JUMP JUMPDEST SWAP4 POP PUSH3 0x324 DUP4 PUSH3 0x282 JUMP JUMPDEST DUP1 PUSH1 0x0 JUMPDEST DUP4 DUP2 LT ISZERO PUSH3 0x35B JUMPI DUP2 MLOAD PUSH3 0x33F DUP9 DUP3 PUSH3 0x2D7 JUMP JUMPDEST SWAP8 POP PUSH3 0x34C DUP4 PUSH3 0x2F1 JUMP JUMPDEST SWAP3 POP POP PUSH1 0x1 DUP2 ADD SWAP1 POP PUSH3 0x328 JUMP JUMPDEST POP DUP6 SWAP4 POP POP POP POP SWAP3 SWAP2 POP POP JUMP JUMPDEST PUSH1 0x0 PUSH1 0x20 DUP3 ADD SWAP1 POP DUP2 DUP2 SUB PUSH1 0x0 DUP4 ADD MSTORE PUSH3 0x384 DUP2 DUP5 PUSH3 0x2FE JUMP JUMPDEST SWAP1 POP SWAP3 SWAP2 POP POP JUMP JUMPDEST PUSH1 0x0 PUSH1 0x40 MLOAD SWAP1 POP SWAP1 JUMP JUMPDEST PUSH1 0x0 DUP1 REVERT JUMPDEST PUSH1 0x0 DUP1 REVERT JUMPDEST PUSH1 0x0 DUP1 REVERT JUMPDEST PUSH1 0x0 PUSH1 0x1F NOT PUSH1 0x1F DUP4 ADD AND SWAP1 POP SWAP2 SWAP1 POP JUMP JUMPDEST PUSH3 0x3C1 DUP3 PUSH3 0x3A5 JUMP JUMPDEST DUP2 ADD DUP2 DUP2 LT PUSH8 0xFFFFFFFFFFFFFFFF DUP3 GT OR ISZERO PUSH3 0x3E3 JUMPI PUSH3 0x3E2 PUSH3 0x208 JUMP JUMPDEST JUMPDEST DUP1 PUSH1 0x40 MSTORE POP POP POP JUMP JUMPDEST PUSH1 0x0 PUSH3 0x3F8 PUSH3 0x38C JUMP JUMPDEST SWAP1 POP PUSH3 0x406 DUP3 DUP3 PUSH3 0x3B6 JUMP JUMPDEST SWAP2 SWAP1 POP JUMP JUMPDEST PUSH1 0x0 PUSH8 0xFFFFFFFFFFFFFFFF DUP3 GT ISZERO PUSH3 0x429 JUMPI PUSH3 0x428 PUSH3 0x208 JUMP JUMPDEST JUMPDEST PUSH1 0x20 DUP3 MUL SWAP1 POP PUSH1 0x20 DUP2 ADD SWAP1 POP SWAP2 SWAP1 POP JUMP JUMPDEST PUSH1 0x0 DUP1 REVERT JUMPDEST PUSH1 0x0 DUP2 SWAP1 POP SWAP2 SWAP1 POP JUMP JUMPDEST PUSH3 0x454 DUP2 PUSH3 0x43F JUMP JUMPDEST DUP2 EQ PUSH3 0x460 JUMPI PUSH1 0x0 DUP1 REVERT JUMPDEST POP JUMP JUMPDEST PUSH1 0x0 DUP2 MLOAD SWAP1 POP PUSH3 0x474 DUP2 PUSH3 0x449 JUMP JUMPDEST SWAP3 SWAP2 POP POP JUMP JUMPDEST PUSH1 0x0 PUSH3 0x491 PUSH3 0x48B DUP5 PUSH3 0x40B JUMP JUMPDEST PUSH3 0x3EC JUMP JUMPDEST SWAP1 POP DUP1 DUP4 DUP3 MSTORE PUSH1 0x20 DUP3 ADD SWAP1 POP PUSH1 0x20 DUP5 MUL DUP4 ADD DUP6 DUP2 GT ISZERO PUSH3 0x4B7 JUMPI PUSH3 0x4B6 PUSH3 0x43A JUMP JUMPDEST JUMPDEST DUP4 JUMPDEST DUP2 DUP2 LT ISZERO PUSH3 0x4E4 JUMPI DUP1 PUSH3 0x4CF DUP9 DUP3 PUSH3 0x463 JUMP JUMPDEST DUP5 MSTORE PUSH1 0x20 DUP5 ADD SWAP4 POP POP PUSH1 0x20 DUP2 ADD SWAP1 POP PUSH3 0x4B9 JUMP JUMPDEST POP POP POP SWAP4 SWAP3 POP POP POP JUMP JUMPDEST PUSH1 0x0 DUP3 PUSH1 0x1F DUP4 ADD SLT PUSH3 0x506 JUMPI PUSH3 0x505 PUSH3 0x3A0 JUMP JUMPDEST JUMPDEST DUP2 MLOAD PUSH3 0x518 DUP5 DUP3 PUSH1 0x20 DUP7 ADD PUSH3 0x47A JUMP JUMPDEST SWAP2 POP POP SWAP3 SWAP2 POP POP JUMP JUMPDEST PUSH1 0x0 PUSH1 0x20 DUP3 DUP5 SUB SLT ISZERO PUSH3 0x53A JUMPI PUSH3 0x539 PUSH3 0x396 JUMP JUMPDEST JUMPDEST PUSH1 0x0 DUP3 ADD MLOAD PUSH8 0xFFFFFFFFFFFFFFFF DUP2 GT ISZERO PUSH3 0x55B JUMPI PUSH3 0x55A PUSH3 0x39B JUMP JUMPDEST JUMPDEST PUSH3 0x569 DUP5 DUP3 DUP6 ADD PUSH3 0x4EE JUMP JUMPDEST SWAP2 POP POP SWAP3 SWAP2 POP POP JUMP JUMPDEST PUSH1 0x0 DUP3 DUP3 MSTORE PUSH1 0x20 DUP3 ADD SWAP1 POP SWAP3 SWAP2 POP POP JUMP JUMPDEST PUSH32 0x436F6D7074726F6C6C65722E656E7465724D61726B657473206661696C65642E PUSH1 0x0 DUP3 ADD MSTORE POP JUMP JUMPDEST PUSH1 0x0 PUSH3 0x5BB PUSH1 0x20 DUP4 PUSH3 0x572 JUMP JUMPDEST SWAP2 POP PUSH3 0x5C8 DUP3 PUSH3 0x583 JUMP JUMPDEST PUSH1 0x20 DUP3 ADD SWAP1 POP SWAP2 SWAP1 POP JUMP JUMPDEST PUSH1 0x0 PUSH1 0x20 DUP3 ADD SWAP1 POP DUP2 DUP2 SUB PUSH1 0x0 DUP4 ADD MSTORE PUSH3 0x5EE DUP2 PUSH3 0x5AC JUMP JUMPDEST SWAP1 POP SWAP2 SWAP1 POP JUMP JUMPDEST PUSH1 0x80 MLOAD PUSH2 0x259B PUSH3 0x63B PUSH1 0x0 CODECOPY PUSH1 0x0 DUP2 DUP2 PUSH2 0x154 ADD MSTORE DUP2 DUP2 PUSH2 0x393 ADD MSTORE DUP2 DUP2 PUSH2 0x4D3 ADD MSTORE DUP2 DUP2 PUSH2 0x5F0 ADD MSTORE DUP2 DUP2 PUSH2 0x718 ADD MSTORE DUP2 DUP2 PUSH2 0x7A1 ADD MSTORE PUSH2 0x92C ADD MSTORE PUSH2 0x259B PUSH1 0x0 RETURN INVALID PUSH1 0x80 PUSH1 0x40 MSTORE CALLVALUE DUP1 ISZERO PUSH2 0x10 JUMPI PUSH1 0x0 DUP1 REVERT JUMPDEST POP PUSH1 0x4 CALLDATASIZE LT PUSH2 0x66 JUMPI PUSH1 0x0 CALLDATALOAD PUSH1 0xE0 SHR DUP1 PUSH4 0x2E1A7D4D EQ PUSH2 0x6C JUMPI DUP1 PUSH4 0x89476069 EQ PUSH2 0x9C JUMPI DUP1 PUSH4 0xB6B55F25 EQ PUSH2 0xB8 JUMPI DUP1 PUSH4 0xBCE3B836 EQ PUSH2 0xE8 JUMPI DUP1 PUSH4 0xEF5CFB8C EQ PUSH2 0x118 JUMPI DUP1 PUSH4 0xF04F2707 EQ PUSH2 0x134 JUMPI PUSH2 0x67 JUMP JUMPDEST JUMPDEST PUSH1 0x0 DUP1 REVERT JUMPDEST PUSH2 0x86 PUSH1 0x4 DUP1 CALLDATASIZE SUB DUP2 ADD SWAP1 PUSH2 0x81 SWAP2 SWAP1 PUSH2 0x1475 JUMP JUMPDEST PUSH2 0x150 JUMP JUMPDEST PUSH1 0x40 MLOAD PUSH2 0x93 SWAP2 SWAP1 PUSH2 0x14BD JUMP JUMPDEST PUSH1 0x40 MLOAD DUP1 SWAP2 SUB SWAP1 RETURN JUMPDEST PUSH2 0xB6 PUSH1 0x4 DUP1 CALLDATASIZE SUB DUP2 ADD SWAP1 PUSH2 0xB1 SWAP2 SWAP1 PUSH2 0x1536 JUMP JUMPDEST PUSH2 0x5EE JUMP JUMPDEST STOP JUMPDEST PUSH2 0xD2 PUSH1 0x4 DUP1 CALLDATASIZE SUB DUP2 ADD SWAP1 PUSH2 0xCD SWAP2 SWAP1 PUSH2 0x1475 JUMP JUMPDEST PUSH2 0x79D JUMP JUMPDEST PUSH1 0x40 MLOAD PUSH2 0xDF SWAP2 SWAP1 PUSH2 0x14BD JUMP JUMPDEST PUSH1 0x40 MLOAD DUP1 SWAP2 SUB SWAP1 RETURN JUMPDEST PUSH2 0x102 PUSH1 0x4 DUP1 CALLDATASIZE SUB DUP2 ADD SWAP1 PUSH2 0xFD SWAP2 SWAP1 PUSH2 0x1536 JUMP JUMPDEST PUSH2 0x88C JUMP JUMPDEST PUSH1 0x40 MLOAD PUSH2 0x10F SWAP2 SWAP1 PUSH2 0x1685 JUMP JUMPDEST PUSH1 0x40 MLOAD DUP1 SWAP2 SUB SWAP1 RETURN JUMPDEST PUSH2 0x132 PUSH1 0x4 DUP1 CALLDATASIZE SUB DUP2 ADD SWAP1 PUSH2 0x12D SWAP2 SWAP1 PUSH2 0x1536 JUMP JUMPDEST PUSH2 0x92A JUMP JUMPDEST STOP JUMPDEST PUSH2 0x14E PUSH1 0x4 DUP1 CALLDATASIZE SUB DUP2 ADD SWAP1 PUSH2 0x149 SWAP2 SWAP1 PUSH2 0x19B6 JUMP JUMPDEST PUSH2 0xADA JUMP JUMPDEST STOP JUMPDEST PUSH1 0x0 PUSH32 0x0 PUSH20 0xFFFFFFFFFFFFFFFFFFFFFFFFFFFFFFFFFFFFFFFF AND CALLER PUSH20 0xFFFFFFFFFFFFFFFFFFFFFFFFFFFFFFFFFFFFFFFF AND EQ PUSH2 0x1E0 JUMPI PUSH1 0x40 MLOAD PUSH32 0x8C379A000000000000000000000000000000000000000000000000000000000 DUP2 MSTORE PUSH1 0x4 ADD PUSH2 0x1D7 SWAP1 PUSH2 0x1B10 JUMP JUMPDEST PUSH1 0x40 MLOAD DUP1 SWAP2 SUB SWAP1 REVERT JUMPDEST PUSH1 0x0 PUSH1 0x3 PUSH1 0xA DUP5 PUSH2 0x1F1 SWAP2 SWAP1 PUSH2 0x1B5F JUMP JUMPDEST PUSH2 0x1FB SWAP2 SWAP1 PUSH2 0x1BD0 JUMP JUMPDEST SWAP1 POP PUSH1 0x0 DUP4 DUP3 PUSH2 0x20B SWAP2 SWAP1 PUSH2 0x1C01 JUMP JUMPDEST SWAP1 POP PUSH1 0x0 PUSH2 0x22F PUSH20 0x833589FCD6EDB6E08F4C7C32D4F71B54BDA02913 DUP4 DUP6 DUP5 PUSH2 0xD6A JUMP JUMPDEST PUSH1 0x0 PUSH1 0x1 PUSH8 0xFFFFFFFFFFFFFFFF DUP2 GT ISZERO PUSH2 0x24C JUMPI PUSH2 0x24B PUSH2 0x16BD JUMP JUMPDEST JUMPDEST PUSH1 0x40 MLOAD SWAP1 DUP1 DUP3 MSTORE DUP1 PUSH1 0x20 MUL PUSH1 0x20 ADD DUP3 ADD PUSH1 0x40 MSTORE DUP1 ISZERO PUSH2 0x27A JUMPI DUP2 PUSH1 0x20 ADD PUSH1 0x20 DUP3 MUL DUP1 CALLDATASIZE DUP4 CALLDATACOPY DUP1 DUP3 ADD SWAP2 POP POP SWAP1 POP JUMPDEST POP SWAP1 POP PUSH20 0xEDC817A28E8B93B03976FBD4A3DDBC9F7D176C22 DUP2 PUSH1 0x0 DUP2 MLOAD DUP2 LT PUSH2 0x2A6 JUMPI PUSH2 0x2A5 PUSH2 0x1C35 JUMP JUMPDEST JUMPDEST PUSH1 0x20 MUL PUSH1 0x20 ADD ADD SWAP1 PUSH20 0xFFFFFFFFFFFFFFFFFFFFFFFFFFFFFFFFFFFFFFFF AND SWAP1 DUP2 PUSH20 0xFFFFFFFFFFFFFFFFFFFFFFFFFFFFFFFFFFFFFFFF AND DUP2 MSTORE POP POP PUSH20 0xFBB21D0380BEE3312B33C4353C8936A0F13EF26C PUSH20 0xFFFFFFFFFFFFFFFFFFFFFFFFFFFFFFFFFFFFFFFF AND PUSH4 0x3685FFE7 ADDRESS DUP4 PUSH1 0x40 MLOAD DUP4 PUSH4 0xFFFFFFFF AND PUSH1 0xE0 SHL DUP2 MSTORE PUSH1 0x4 ADD PUSH2 0x32F SWAP3 SWAP2 SWAP1 PUSH2 0x1D22 JUMP JUMPDEST PUSH1 0x0 PUSH1 0x40 MLOAD DUP1 DUP4 SUB DUP2 PUSH1 0x0 DUP8 DUP1 EXTCODESIZE ISZERO DUP1 ISZERO PUSH2 0x349 JUMPI PUSH1 0x0 DUP1 REVERT JUMPDEST POP GAS CALL ISZERO DUP1 ISZERO PUSH2 0x35D JUMPI RETURNDATASIZE PUSH1 0x0 DUP1 RETURNDATACOPY RETURNDATASIZE PUSH1 0x0 REVERT JUMPDEST POP POP POP POP PUSH20 0xA88594D404727625A9437C3F886C7643872296AE PUSH20 0xFFFFFFFFFFFFFFFFFFFFFFFFFFFFFFFFFFFFFFFF AND PUSH4 0xA9059CBB PUSH32 0x0 PUSH20 0xA88594D404727625A9437C3F886C7643872296AE PUSH20 0xFFFFFFFFFFFFFFFFFFFFFFFFFFFFFFFFFFFFFFFF AND PUSH4 0x70A08231 ADDRESS PUSH1 0x40 MLOAD DUP3 PUSH4 0xFFFFFFFF AND PUSH1 0xE0 SHL DUP2 MSTORE PUSH1 0x4 ADD PUSH2 0x3FF SWAP2 SWAP1 PUSH2 0x1D52 JUMP JUMPDEST PUSH1 0x20 PUSH1 0x40 MLOAD DUP1 DUP4 SUB DUP2 DUP7 GAS STATICCALL ISZERO DUP1 ISZERO PUSH2 0x41C JUMPI RETURNDATASIZE PUSH1 0x0 DUP1 RETURNDATACOPY RETURNDATASIZE PUSH1 0x0 REVERT JUMPDEST POP POP POP POP PUSH1 0x40 MLOAD RETURNDATASIZE PUSH1 0x1F NOT PUSH1 0x1F DUP3 ADD AND DUP3 ADD DUP1 PUSH1 0x40 MSTORE POP DUP2 ADD SWAP1 PUSH2 0x440 SWAP2 SWAP1 PUSH2 0x1D82 JUMP JUMPDEST PUSH1 0x40 MLOAD DUP4 PUSH4 0xFFFFFFFF AND PUSH1 0xE0 SHL DUP2 MSTORE PUSH1 0x4 ADD PUSH2 0x45D SWAP3 SWAP2 SWAP1 PUSH2 0x1DBE JUMP JUMPDEST PUSH1 0x20 PUSH1 0x40 MLOAD DUP1 DUP4 SUB DUP2 PUSH1 0x0 DUP8 GAS CALL ISZERO DUP1 ISZERO PUSH2 0x47C JUMPI RETURNDATASIZE PUSH1 0x0 DUP1 RETURNDATACOPY RETURNDATASIZE PUSH1 0x0 REVERT JUMPDEST POP POP POP POP PUSH1 0x40 MLOAD RETURNDATASIZE PUSH1 0x1F NOT PUSH1 0x1F DUP3 ADD AND DUP3 ADD DUP1 PUSH1 0x40 MSTORE POP DUP2 ADD SWAP1 PUSH2 0x4A0 SWAP2 SWAP1 PUSH2 0x1E13 JUMP JUMPDEST POP PUSH20 0x833589FCD6EDB6E08F4C7C32D4F71B54BDA02913 PUSH20 0xFFFFFFFFFFFFFFFFFFFFFFFFFFFFFFFFFFFFFFFF AND PUSH4 0xA9059CBB PUSH32 0x0 PUSH20 0x833589FCD6EDB6E08F4C7C32D4F71B54BDA02913 PUSH20 0xFFFFFFFFFFFFFFFFFFFFFFFFFFFFFFFFFFFFFFFF AND PUSH4 0x70A08231 ADDRESS PUSH1 0x40 MLOAD DUP3 PUSH4 0xFFFFFFFF AND PUSH1 0xE0 SHL DUP2 MSTORE PUSH1 0x4 ADD PUSH2 0x53F SWAP2 SWAP1 PUSH2 0x1D52 JUMP JUMPDEST PUSH1 0x20 PUSH1 0x40 MLOAD DUP1 DUP4 SUB DUP2 DUP7 GAS STATICCALL ISZERO DUP1 ISZERO PUSH2 0x55C JUMPI RETURNDATASIZE PUSH1 0x0 DUP1 RETURNDATACOPY RETURNDATASIZE PUSH1 0x0 REVERT JUMPDEST POP POP POP POP PUSH1 0x40 MLOAD RETURNDATASIZE PUSH1 0x1F NOT PUSH1 0x1F DUP3 ADD AND DUP3 ADD DUP1 PUSH1 0x40 MSTORE POP DUP2 ADD SWAP1 PUSH2 0x580 SWAP2 SWAP1 PUSH2 0x1D82 JUMP JUMPDEST PUSH1 0x40 MLOAD DUP4 PUSH4 0xFFFFFFFF AND PUSH1 0xE0 SHL DUP2 MSTORE PUSH1 0x4 ADD PUSH2 0x59D SWAP3 SWAP2 SWAP1 PUSH2 0x1DBE JUMP JUMPDEST PUSH1 0x20 PUSH1 0x40 MLOAD DUP1 DUP4 SUB DUP2 PUSH1 0x0 DUP8 GAS CALL ISZERO DUP1 ISZERO PUSH2 0x5BC JUMPI RETURNDATASIZE PUSH1 0x0 DUP1 RETURNDATACOPY RETURNDATASIZE PUSH1 0x0 REVERT JUMPDEST POP POP POP POP PUSH1 0x40 MLOAD RETURNDATASIZE PUSH1 0x1F NOT PUSH1 0x1F DUP3 ADD AND DUP3 ADD DUP1 PUSH1 0x40 MSTORE POP DUP2 ADD SWAP1 PUSH2 0x5E0 SWAP2 SWAP1 PUSH2 0x1E13 JUMP JUMPDEST POP PUSH1 0x1 SWAP5 POP POP POP POP POP SWAP2 SWAP1 POP JUMP JUMPDEST PUSH32 0x0 PUSH20 0xFFFFFFFFFFFFFFFFFFFFFFFFFFFFFFFFFFFFFFFF AND CALLER PUSH20 0xFFFFFFFFFFFFFFFFFFFFFFFFFFFFFFFFFFFFFFFF AND EQ PUSH2 0x67C JUMPI PUSH1 0x40 MLOAD PUSH32 0x8C379A000000000000000000000000000000000000000000000000000000000 DUP2 MSTORE PUSH1 0x4 ADD PUSH2 0x673 SWAP1 PUSH2 0x1B10 JUMP JUMPDEST PUSH1 0x40 MLOAD DUP1 SWAP2 SUB SWAP1 REVERT JUMPDEST PUSH1 0x0 DUP2 PUSH20 0xFFFFFFFFFFFFFFFFFFFFFFFFFFFFFFFFFFFFFFFF AND PUSH4 0x70A08231 ADDRESS PUSH1 0x40 MLOAD DUP3 PUSH4 0xFFFFFFFF AND PUSH1 0xE0 SHL DUP2 MSTORE PUSH1 0x4 ADD PUSH2 0x6B7 SWAP2 SWAP1 PUSH2 0x1D52 JUMP JUMPDEST PUSH1 0x20 PUSH1 0x40 MLOAD DUP1 DUP4 SUB DUP2 DUP7 GAS STATICCALL ISZERO DUP1 ISZERO PUSH2 0x6D4 JUMPI RETURNDATASIZE PUSH1 0x0 DUP1 RETURNDATACOPY RETURNDATASIZE PUSH1 0x0 REVERT JUMPDEST POP POP POP POP PUSH1 0x40 MLOAD RETURNDATASIZE PUSH1 0x1F NOT PUSH1 0x1F DUP3 ADD AND DUP3 ADD DUP1 PUSH1 0x40 MSTORE POP DUP2 ADD SWAP1 PUSH2 0x6F8 SWAP2 SWAP1 PUSH2 0x1D82 JUMP JUMPDEST SWAP1 POP DUP2 PUSH20 0xFFFFFFFFFFFFFFFFFFFFFFFFFFFFFFFFFFFFFFFF AND PUSH4 0xA9059CBB PUSH32 0x0 DUP4 PUSH1 0x40 MLOAD DUP4 PUSH4 0xFFFFFFFF AND PUSH1 0xE0 SHL DUP2 MSTORE PUSH1 0x4 ADD PUSH2 0x755 SWAP3 SWAP2 SWAP1 PUSH2 0x1DBE JUMP JUMPDEST PUSH1 0x20 PUSH1 0x40 MLOAD DUP1 DUP4 SUB DUP2 PUSH1 0x0 DUP8 GAS CALL ISZERO DUP1 ISZERO PUSH2 0x774 JUMPI RETURNDATASIZE PUSH1 0x0 DUP1 RETURNDATACOPY RETURNDATASIZE PUSH1 0x0 REVERT JUMPDEST POP POP POP POP PUSH1 0x40 MLOAD RETURNDATASIZE PUSH1 0x1F NOT PUSH1 0x1F DUP3 ADD AND DUP3 ADD DUP1 PUSH1 0x40 MSTORE POP DUP2 ADD SWAP1 PUSH2 0x798 SWAP2 SWAP1 PUSH2 0x1E13 JUMP JUMPDEST POP POP POP JUMP JUMPDEST PUSH1 0x0 PUSH32 0x0 PUSH20 0xFFFFFFFFFFFFFFFFFFFFFFFFFFFFFFFFFFFFFFFF AND CALLER PUSH20 0xFFFFFFFFFFFFFFFFFFFFFFFFFFFFFFFFFFFFFFFF AND EQ PUSH2 0x82D JUMPI PUSH1 0x40 MLOAD PUSH32 0x8C379A000000000000000000000000000000000000000000000000000000000 DUP2 MSTORE PUSH1 0x4 ADD PUSH2 0x824 SWAP1 PUSH2 0x1B10 JUMP JUMPDEST PUSH1 0x40 MLOAD DUP1 SWAP2 SUB SWAP1 REVERT JUMPDEST PUSH1 0x0 PUSH1 0x3 PUSH1 0xA DUP5 PUSH2 0x83E SWAP2 SWAP1 PUSH2 0x1B5F JUMP JUMPDEST PUSH2 0x848 SWAP2 SWAP1 PUSH2 0x1BD0 JUMP JUMPDEST SWAP1 POP PUSH1 0x0 DUP4 DUP3 PUSH2 0x858 SWAP2 SWAP1 PUSH2 0x1C01 JUMP JUMPDEST SWAP1 POP PUSH1 0x0 PUSH1 0x1 SWAP1 POP PUSH2 0x880 PUSH20 0x833589FCD6EDB6E08F4C7C32D4F71B54BDA02913 DUP4 DUP6 DUP5 PUSH2 0xD6A JUMP JUMPDEST PUSH1 0x1 SWAP4 POP POP POP POP SWAP2 SWAP1 POP JUMP JUMPDEST PUSH1 0x60 PUSH20 0xE9005B078701E2A0948D2EAC43010D35870AD9D2 PUSH20 0xFFFFFFFFFFFFFFFFFFFFFFFFFFFFFFFFFFFFFFFF AND PUSH4 0x7E8CE85 DUP4 ADDRESS PUSH1 0x40 MLOAD DUP4 PUSH4 0xFFFFFFFF AND PUSH1 0xE0 SHL DUP2 MSTORE PUSH1 0x4 ADD PUSH2 0x8DD SWAP3 SWAP2 SWAP1 PUSH2 0x1E9F JUMP JUMPDEST PUSH1 0x0 PUSH1 0x40 MLOAD DUP1 DUP4 SUB DUP2 DUP7 GAS STATICCALL ISZERO DUP1 ISZERO PUSH2 0x8FA JUMPI RETURNDATASIZE PUSH1 0x0 DUP1 RETURNDATACOPY RETURNDATASIZE PUSH1 0x0 REVERT JUMPDEST POP POP POP POP PUSH1 0x40 MLOAD RETURNDATASIZE PUSH1 0x0 DUP3 RETURNDATACOPY RETURNDATASIZE PUSH1 0x1F NOT PUSH1 0x1F DUP3 ADD AND DUP3 ADD DUP1 PUSH1 0x40 MSTORE POP DUP2 ADD SWAP1 PUSH2 0x923 SWAP2 SWAP1 PUSH2 0x201D JUMP JUMPDEST SWAP1 POP SWAP2 SWAP1 POP JUMP JUMPDEST PUSH32 0x0 PUSH20 0xFFFFFFFFFFFFFFFFFFFFFFFFFFFFFFFFFFFFFFFF AND CALLER PUSH20 0xFFFFFFFFFFFFFFFFFFFFFFFFFFFFFFFFFFFFFFFF AND EQ PUSH2 0x9B8 JUMPI PUSH1 0x40 MLOAD PUSH32 0x8C379A000000000000000000000000000000000000000000000000000000000 DUP2 MSTORE PUSH1 0x4 ADD PUSH2 0x9AF SWAP1 PUSH2 0x1B10 JUMP JUMPDEST PUSH1 0x40 MLOAD DUP1 SWAP2 SUB SWAP1 REVERT JUMPDEST PUSH1 0x0 PUSH1 0x1 PUSH8 0xFFFFFFFFFFFFFFFF DUP2 GT ISZERO PUSH2 0x9D5 JUMPI PUSH2 0x9D4 PUSH2 0x16BD JUMP JUMPDEST JUMPDEST PUSH1 0x40 MLOAD SWAP1 DUP1 DUP3 MSTORE DUP1 PUSH1 0x20 MUL PUSH1 0x20 ADD DUP3 ADD PUSH1 0x40 MSTORE DUP1 ISZERO PUSH2 0xA03 JUMPI DUP2 PUSH1 0x20 ADD PUSH1 0x20 DUP3 MUL DUP1 CALLDATASIZE DUP4 CALLDATACOPY DUP1 DUP3 ADD SWAP2 POP POP SWAP1 POP JUMPDEST POP SWAP1 POP DUP2 DUP2 PUSH1 0x0 DUP2 MLOAD DUP2 LT PUSH2 0xA1B JUMPI PUSH2 0xA1A PUSH2 0x1C35 JUMP JUMPDEST JUMPDEST PUSH1 0x20 MUL PUSH1 0x20 ADD ADD SWAP1 PUSH20 0xFFFFFFFFFFFFFFFFFFFFFFFFFFFFFFFFFFFFFFFF AND SWAP1 DUP2 PUSH20 0xFFFFFFFFFFFFFFFFFFFFFFFFFFFFFFFFFFFFFFFF AND DUP2 MSTORE POP POP PUSH20 0xFBB21D0380BEE3312B33C4353C8936A0F13EF26C PUSH20 0xFFFFFFFFFFFFFFFFFFFFFFFFFFFFFFFFFFFFFFFF AND PUSH4 0x3685FFE7 ADDRESS DUP4 PUSH1 0x40 MLOAD DUP4 PUSH4 0xFFFFFFFF AND PUSH1 0xE0 SHL DUP2 MSTORE PUSH1 0x4 ADD PUSH2 0xAA4 SWAP3 SWAP2 SWAP1 PUSH2 0x1D22 JUMP JUMPDEST PUSH1 0x0 PUSH1 0x40 MLOAD DUP1 DUP4 SUB DUP2 PUSH1 0x0 DUP8 DUP1 EXTCODESIZE ISZERO DUP1 ISZERO PUSH2 0xABE JUMPI PUSH1 0x0 DUP1 REVERT JUMPDEST POP GAS CALL ISZERO DUP1 ISZERO PUSH2 0xAD2 JUMPI RETURNDATASIZE PUSH1 0x0 DUP1 RETURNDATACOPY RETURNDATASIZE PUSH1 0x0 REVERT JUMPDEST POP POP POP POP POP POP JUMP JUMPDEST PUSH20 0xBA12222222228D8BA445958A75A0704D566BF2C8 PUSH20 0xFFFFFFFFFFFFFFFFFFFFFFFFFFFFFFFFFFFFFFFF AND CALLER PUSH20 0xFFFFFFFFFFFFFFFFFFFFFFFFFFFFFFFFFFFFFFFF AND EQ PUSH2 0xB5C JUMPI PUSH1 0x40 MLOAD PUSH32 0x8C379A000000000000000000000000000000000000000000000000000000000 DUP2 MSTORE PUSH1 0x4 ADD PUSH2 0xB53 SWAP1 PUSH2 0x20D8 JUMP JUMPDEST PUSH1 0x40 MLOAD DUP1 SWAP2 SUB SWAP1 REVERT JUMPDEST PUSH1 0x0 DUP2 DUP1 PUSH1 0x20 ADD SWAP1 MLOAD DUP2 ADD SWAP1 PUSH2 0xB72 SWAP2 SWAP1 PUSH2 0x2170 JUMP JUMPDEST SWAP1 POP PUSH1 0x0 DUP2 PUSH1 0x0 ADD MLOAD PUSH20 0xFFFFFFFFFFFFFFFFFFFFFFFFFFFFFFFFFFFFFFFF AND PUSH4 0x70A08231 ADDRESS PUSH1 0x40 MLOAD DUP3 PUSH4 0xFFFFFFFF AND PUSH1 0xE0 SHL DUP2 MSTORE PUSH1 0x4 ADD PUSH2 0xBB3 SWAP2 SWAP1 PUSH2 0x1D52 JUMP JUMPDEST PUSH1 0x20 PUSH1 0x40 MLOAD DUP1 DUP4 SUB DUP2 DUP7 GAS STATICCALL ISZERO DUP1 ISZERO PUSH2 0xBD0 JUMPI RETURNDATASIZE PUSH1 0x0 DUP1 RETURNDATACOPY RETURNDATASIZE PUSH1 0x0 REVERT JUMPDEST POP POP POP POP PUSH1 0x40 MLOAD RETURNDATASIZE PUSH1 0x1F NOT PUSH1 0x1F DUP3 ADD AND DUP3 ADD DUP1 PUSH1 0x40 MSTORE POP DUP2 ADD SWAP1 PUSH2 0xBF4 SWAP2 SWAP1 PUSH2 0x1D82 JUMP JUMPDEST SWAP1 POP DUP4 PUSH1 0x0 DUP2 MLOAD DUP2 LT PUSH2 0xC0A JUMPI PUSH2 0xC09 PUSH2 0x1C35 JUMP JUMPDEST JUMPDEST PUSH1 0x20 MUL PUSH1 0x20 ADD ADD MLOAD DUP3 PUSH1 0x20 ADD MLOAD PUSH2 0xC21 SWAP2 SWAP1 PUSH2 0x219D JUMP JUMPDEST DUP2 LT ISZERO PUSH2 0xC63 JUMPI PUSH1 0x40 MLOAD PUSH32 0x8C379A000000000000000000000000000000000000000000000000000000000 DUP2 MSTORE PUSH1 0x4 ADD PUSH2 0xC5A SWAP1 PUSH2 0x2243 JUMP JUMPDEST PUSH1 0x40 MLOAD DUP1 SWAP2 SUB SWAP1 REVERT JUMPDEST PUSH1 0x1 ISZERO ISZERO DUP3 PUSH1 0x60 ADD MLOAD ISZERO ISZERO SUB PUSH2 0xC87 JUMPI PUSH2 0xC85 DUP3 PUSH1 0x40 ADD MLOAD DUP4 PUSH1 0x20 ADD MLOAD PUSH2 0xF60 JUMP JUMPDEST POP JUMPDEST PUSH1 0x0 ISZERO ISZERO DUP3 PUSH1 0x60 ADD MLOAD ISZERO ISZERO SUB PUSH2 0xCA1 JUMPI PUSH2 0xC9F PUSH2 0x1135 JUMP JUMPDEST POP JUMPDEST DUP2 PUSH1 0x0 ADD MLOAD PUSH20 0xFFFFFFFFFFFFFFFFFFFFFFFFFFFFFFFFFFFFFFFF AND PUSH4 0xA9059CBB PUSH20 0xBA12222222228D8BA445958A75A0704D566BF2C8 DUP7 PUSH1 0x0 DUP2 MLOAD DUP2 LT PUSH2 0xCEA JUMPI PUSH2 0xCE9 PUSH2 0x1C35 JUMP JUMPDEST JUMPDEST PUSH1 0x20 MUL PUSH1 0x20 ADD ADD MLOAD DUP6 PUSH1 0x20 ADD MLOAD PUSH2 0xD01 SWAP2 SWAP1 PUSH2 0x219D JUMP JUMPDEST PUSH1 0x40 MLOAD DUP4 PUSH4 0xFFFFFFFF AND PUSH1 0xE0 SHL DUP2 MSTORE PUSH1 0x4 ADD PUSH2 0xD1E SWAP3 SWAP2 SWAP1 PUSH2 0x1DBE JUMP JUMPDEST PUSH1 0x20 PUSH1 0x40 MLOAD DUP1 DUP4 SUB DUP2 PUSH1 0x0 DUP8 GAS CALL ISZERO DUP1 ISZERO PUSH2 0xD3D JUMPI RETURNDATASIZE PUSH1 0x0 DUP1 RETURNDATACOPY RETURNDATASIZE PUSH1 0x0 REVERT JUMPDEST POP POP POP POP PUSH1 0x40 MLOAD RETURNDATASIZE PUSH1 0x1F NOT PUSH1 0x1F DUP3 ADD AND DUP3 ADD DUP1 PUSH1 0x40 MSTORE POP DUP2 ADD SWAP1 PUSH2 0xD61 SWAP2 SWAP1 PUSH2 0x1E13 JUMP JUMPDEST POP POP POP POP POP POP POP JUMP JUMPDEST PUSH1 0x0 PUSH1 0x40 MLOAD DUP1 PUSH1 0x80 ADD PUSH1 0x40 MSTORE DUP1 DUP7 PUSH20 0xFFFFFFFFFFFFFFFFFFFFFFFFFFFFFFFFFFFFFFFF AND DUP2 MSTORE PUSH1 0x20 ADD DUP6 DUP2 MSTORE PUSH1 0x20 ADD DUP5 DUP2 MSTORE PUSH1 0x20 ADD DUP4 ISZERO ISZERO DUP2 MSTORE POP PUSH1 0x40 MLOAD PUSH1 0x20 ADD PUSH2 0xDB5 SWAP2 SWAP1 PUSH2 0x22C7 JUMP JUMPDEST PUSH1 0x40 MLOAD PUSH1 0x20 DUP2 DUP4 SUB SUB DUP2 MSTORE SWAP1 PUSH1 0x40 MSTORE SWAP1 POP PUSH1 0x0 PUSH1 0x1 PUSH8 0xFFFFFFFFFFFFFFFF DUP2 GT ISZERO PUSH2 0xDE3 JUMPI PUSH2 0xDE2 PUSH2 0x16BD JUMP JUMPDEST JUMPDEST PUSH1 0x40 MLOAD SWAP1 DUP1 DUP3 MSTORE DUP1 PUSH1 0x20 MUL PUSH1 0x20 ADD DUP3 ADD PUSH1 0x40 MSTORE DUP1 ISZERO PUSH2 0xE11 JUMPI DUP2 PUSH1 0x20 ADD PUSH1 0x20 DUP3 MUL DUP1 CALLDATASIZE DUP4 CALLDATACOPY DUP1 DUP3 ADD SWAP2 POP POP SWAP1 POP JUMPDEST POP SWAP1 POP DUP6 DUP2 PUSH1 0x0 DUP2 MLOAD DUP2 LT PUSH2 0xE29 JUMPI PUSH2 0xE28 PUSH2 0x1C35 JUMP JUMPDEST JUMPDEST PUSH1 0x20 MUL PUSH1 0x20 ADD ADD SWAP1 PUSH20 0xFFFFFFFFFFFFFFFFFFFFFFFFFFFFFFFFFFFFFFFF AND SWAP1 DUP2 PUSH20 0xFFFFFFFFFFFFFFFFFFFFFFFFFFFFFFFFFFFFFFFF AND DUP2 MSTORE POP POP PUSH1 0x0 PUSH1 0x1 PUSH8 0xFFFFFFFFFFFFFFFF DUP2 GT ISZERO PUSH2 0xE80 JUMPI PUSH2 0xE7F PUSH2 0x16BD JUMP JUMPDEST JUMPDEST PUSH1 0x40 MLOAD SWAP1 DUP1 DUP3 MSTORE DUP1 PUSH1 0x20 MUL PUSH1 0x20 ADD DUP3 ADD PUSH1 0x40 MSTORE DUP1 ISZERO PUSH2 0xEAE JUMPI DUP2 PUSH1 0x20 ADD PUSH1 0x20 DUP3 MUL DUP1 CALLDATASIZE DUP4 CALLDATACOPY DUP1 DUP3 ADD SWAP2 POP POP SWAP1 POP JUMPDEST POP SWAP1 POP DUP6 DUP2 PUSH1 0x0 DUP2 MLOAD DUP2 LT PUSH2 0xEC6 JUMPI PUSH2 0xEC5 PUSH2 0x1C35 JUMP JUMPDEST JUMPDEST PUSH1 0x20 MUL PUSH1 0x20 ADD ADD DUP2 DUP2 MSTORE POP POP PUSH20 0xBA12222222228D8BA445958A75A0704D566BF2C8 PUSH20 0xFFFFFFFFFFFFFFFFFFFFFFFFFFFFFFFFFFFFFFFF AND PUSH4 0x5C38449E ADDRESS DUP5 DUP5 DUP8 PUSH1 0x40 MLOAD DUP6 PUSH4 0xFFFFFFFF AND PUSH1 0xE0 SHL DUP2 MSTORE PUSH1 0x4 ADD PUSH2 0xF25 SWAP5 SWAP4 SWAP3 SWAP2 SWAP1 PUSH2 0x24F0 JUMP JUMPDEST PUSH1 0x0 PUSH1 0x40 MLOAD DUP1 DUP4 SUB DUP2 PUSH1 0x0 DUP8 DUP1 EXTCODESIZE ISZERO DUP1 ISZERO PUSH2 0xF3F JUMPI PUSH1 0x0 DUP1 REVERT JUMPDEST POP GAS CALL ISZERO DUP1 ISZERO PUSH2 0xF53 JUMPI RETURNDATASIZE PUSH1 0x0 DUP1 RETURNDATACOPY RETURNDATASIZE PUSH1 0x0 REVERT JUMPDEST POP POP POP POP POP POP POP POP POP POP POP JUMP JUMPDEST PUSH1 0x0 PUSH20 0x833589FCD6EDB6E08F4C7C32D4F71B54BDA02913 PUSH20 0xFFFFFFFFFFFFFFFFFFFFFFFFFFFFFFFFFFFFFFFF AND PUSH4 0x95EA7B3 PUSH20 0xEDC817A28E8B93B03976FBD4A3DDBC9F7D176C22 DUP6 PUSH1 0x40 MLOAD DUP4 PUSH4 0xFFFFFFFF AND PUSH1 0xE0 SHL DUP2 MSTORE PUSH1 0x4 ADD PUSH2 0xFC5 SWAP3 SWAP2 SWAP1 PUSH2 0x1DBE JUMP JUMPDEST PUSH1 0x20 PUSH1 0x40 MLOAD DUP1 DUP4 SUB DUP2 PUSH1 0x0 DUP8 GAS CALL ISZERO DUP1 ISZERO PUSH2 0xFE4 JUMPI RETURNDATASIZE PUSH1 0x0 DUP1 RETURNDATACOPY RETURNDATASIZE PUSH1 0x0 REVERT JUMPDEST POP POP POP POP PUSH1 0x40 MLOAD RETURNDATASIZE PUSH1 0x1F NOT PUSH1 0x1F DUP3 ADD AND DUP3 ADD DUP1 PUSH1 0x40 MSTORE POP DUP2 ADD SWAP1 PUSH2 0x1008 SWAP2 SWAP1 PUSH2 0x1E13 JUMP JUMPDEST POP PUSH20 0xEDC817A28E8B93B03976FBD4A3DDBC9F7D176C22 PUSH20 0xFFFFFFFFFFFFFFFFFFFFFFFFFFFFFFFFFFFFFFFF AND PUSH4 0xA0712D68 DUP5 PUSH1 0x40 MLOAD DUP3 PUSH4 0xFFFFFFFF AND PUSH1 0xE0 SHL DUP2 MSTORE PUSH1 0x4 ADD PUSH2 0x1056 SWAP2 SWAP1 PUSH2 0x254A JUMP JUMPDEST PUSH1 0x20 PUSH1 0x40 MLOAD DUP1 DUP4 SUB DUP2 PUSH1 0x0 DUP8 GAS CALL ISZERO DUP1 ISZERO PUSH2 0x1075 JUMPI RETURNDATASIZE PUSH1 0x0 DUP1 RETURNDATACOPY RETURNDATASIZE PUSH1 0x0 REVERT JUMPDEST POP POP POP POP PUSH1 0x40 MLOAD RETURNDATASIZE PUSH1 0x1F NOT PUSH1 0x1F DUP3 ADD AND DUP3 ADD DUP1 PUSH1 0x40 MSTORE POP DUP2 ADD SWAP1 PUSH2 0x1099 SWAP2 SWAP1 PUSH2 0x1D82 JUMP JUMPDEST POP PUSH20 0xEDC817A28E8B93B03976FBD4A3DDBC9F7D176C22 PUSH20 0xFFFFFFFFFFFFFFFFFFFFFFFFFFFFFFFFFFFFFFFF AND PUSH4 0xC5EBEAEC DUP4 PUSH1 0x40 MLOAD DUP3 PUSH4 0xFFFFFFFF AND PUSH1 0xE0 SHL DUP2 MSTORE PUSH1 0x4 ADD PUSH2 0x10E7 SWAP2 SWAP1 PUSH2 0x254A JUMP JUMPDEST PUSH1 0x20 PUSH1 0x40 MLOAD DUP1 DUP4 SUB DUP2 PUSH1 0x0 DUP8 GAS CALL ISZERO DUP1 ISZERO PUSH2 0x1106 JUMPI RETURNDATASIZE PUSH1 0x0 DUP1 RETURNDATACOPY RETURNDATASIZE PUSH1 0x0 REVERT JUMPDEST POP POP POP POP PUSH1 0x40 MLOAD RETURNDATASIZE PUSH1 0x1F NOT PUSH1 0x1F DUP3 ADD AND DUP3 ADD DUP1 PUSH1 0x40 MSTORE POP DUP2 ADD SWAP1 PUSH2 0x112A SWAP2 SWAP1 PUSH2 0x1D82 JUMP JUMPDEST POP PUSH1 0x1 SWAP1 POP SWAP3 SWAP2 POP POP JUMP JUMPDEST PUSH1 0x0 DUP1 PUSH20 0xEDC817A28E8B93B03976FBD4A3DDBC9F7D176C22 PUSH20 0xFFFFFFFFFFFFFFFFFFFFFFFFFFFFFFFFFFFFFFFF AND PUSH4 0x17BFDFBC ADDRESS PUSH1 0x40 MLOAD DUP3 PUSH4 0xFFFFFFFF AND PUSH1 0xE0 SHL DUP2 MSTORE PUSH1 0x4 ADD PUSH2 0x1185 SWAP2 SWAP1 PUSH2 0x1D52 JUMP JUMPDEST PUSH1 0x20 PUSH1 0x40 MLOAD DUP1 DUP4 SUB DUP2 PUSH1 0x0 DUP8 GAS CALL ISZERO DUP1 ISZERO PUSH2 0x11A4 JUMPI RETURNDATASIZE PUSH1 0x0 DUP1 RETURNDATACOPY RETURNDATASIZE PUSH1 0x0 REVERT JUMPDEST POP POP POP POP PUSH1 0x40 MLOAD RETURNDATASIZE PUSH1 0x1F NOT PUSH1 0x1F DUP3 ADD AND DUP3 ADD DUP1 PUSH1 0x40 MSTORE POP DUP2 ADD SWAP1 PUSH2 0x11C8 SWAP2 SWAP1 PUSH2 0x1D82 JUMP JUMPDEST SWAP1 POP PUSH20 0x833589FCD6EDB6E08F4C7C32D4F71B54BDA02913 PUSH20 0xFFFFFFFFFFFFFFFFFFFFFFFFFFFFFFFFFFFFFFFF AND PUSH4 0x95EA7B3 PUSH20 0xEDC817A28E8B93B03976FBD4A3DDBC9F7D176C22 DUP4 PUSH1 0x40 MLOAD DUP4 PUSH4 0xFFFFFFFF AND PUSH1 0xE0 SHL DUP2 MSTORE PUSH1 0x4 ADD PUSH2 0x122D SWAP3 SWAP2 SWAP1 PUSH2 0x1DBE JUMP JUMPDEST PUSH1 0x20 PUSH1 0x40 MLOAD DUP1 DUP4 SUB DUP2 PUSH1 0x0 DUP8 GAS CALL ISZERO DUP1 ISZERO PUSH2 0x124C JUMPI RETURNDATASIZE PUSH1 0x0 DUP1 RETURNDATACOPY RETURNDATASIZE PUSH1 0x0 REVERT JUMPDEST POP POP POP POP PUSH1 0x40 MLOAD RETURNDATASIZE PUSH1 0x1F NOT PUSH1 0x1F DUP3 ADD AND DUP3 ADD DUP1 PUSH1 0x40 MSTORE POP DUP2 ADD SWAP1 PUSH2 0x1270 SWAP2 SWAP1 PUSH2 0x1E13 JUMP JUMPDEST POP PUSH20 0xEDC817A28E8B93B03976FBD4A3DDBC9F7D176C22 PUSH20 0xFFFFFFFFFFFFFFFFFFFFFFFFFFFFFFFFFFFFFFFF AND PUSH4 0xE752702 DUP3 PUSH1 0x40 MLOAD DUP3 PUSH4 0xFFFFFFFF AND PUSH1 0xE0 SHL DUP2 MSTORE PUSH1 0x4 ADD PUSH2 0x12BE SWAP2 SWAP1 PUSH2 0x254A JUMP JUMPDEST PUSH1 0x20 PUSH1 0x40 MLOAD DUP1 DUP4 SUB DUP2 PUSH1 0x0 DUP8 GAS CALL ISZERO DUP1 ISZERO PUSH2 0x12DD JUMPI RETURNDATASIZE PUSH1 0x0 DUP1 RETURNDATACOPY RETURNDATASIZE PUSH1 0x0 REVERT JUMPDEST POP POP POP POP PUSH1 0x40 MLOAD RETURNDATASIZE PUSH1 0x1F NOT PUSH1 0x1F DUP3 ADD AND DUP3 ADD DUP1 PUSH1 0x40 MSTORE POP DUP2 ADD SWAP1 PUSH2 0x1301 SWAP2 SWAP1 PUSH2 0x1D82 JUMP JUMPDEST POP PUSH20 0xEDC817A28E8B93B03976FBD4A3DDBC9F7D176C22 PUSH20 0xFFFFFFFFFFFFFFFFFFFFFFFFFFFFFFFFFFFFFFFF AND PUSH4 0x70A08231 ADDRESS PUSH1 0x40 MLOAD DUP3 PUSH4 0xFFFFFFFF AND PUSH1 0xE0 SHL DUP2 MSTORE PUSH1 0x4 ADD PUSH2 0x134F SWAP2 SWAP1 PUSH2 0x1D52 JUMP JUMPDEST PUSH1 0x20 PUSH1 0x40 MLOAD DUP1 DUP4 SUB DUP2 DUP7 GAS STATICCALL ISZERO DUP1 ISZERO PUSH2 0x136C JUMPI RETURNDATASIZE PUSH1 0x0 DUP1 RETURNDATACOPY RETURNDATASIZE PUSH1 0x0 REVERT JUMPDEST POP POP POP POP PUSH1 0x40 MLOAD RETURNDATASIZE PUSH1 0x1F NOT PUSH1 0x1F DUP3 ADD AND DUP3 ADD DUP1 PUSH1 0x40 MSTORE POP DUP2 ADD SWAP1 PUSH2 0x1390 SWAP2 SWAP1 PUSH2 0x1D82 JUMP JUMPDEST SWAP1 POP PUSH20 0xEDC817A28E8B93B03976FBD4A3DDBC9F7D176C22 PUSH20 0xFFFFFFFFFFFFFFFFFFFFFFFFFFFFFFFFFFFFFFFF AND PUSH4 0xDB006A75 DUP3 PUSH1 0x40 MLOAD DUP3 PUSH4 0xFFFFFFFF AND PUSH1 0xE0 SHL DUP2 MSTORE PUSH1 0x4 ADD PUSH2 0x13DF SWAP2 SWAP1 PUSH2 0x254A JUMP JUMPDEST PUSH1 0x20 PUSH1 0x40 MLOAD DUP1 DUP4 SUB DUP2 PUSH1 0x0 DUP8 GAS CALL ISZERO DUP1 ISZERO PUSH2 0x13FE JUMPI RETURNDATASIZE PUSH1 0x0 DUP1 RETURNDATACOPY RETURNDATASIZE PUSH1 0x0 REVERT JUMPDEST POP POP POP POP PUSH1 0x40 MLOAD RETURNDATASIZE PUSH1 0x1F NOT PUSH1 0x1F DUP3 ADD AND DUP3 ADD DUP1 PUSH1 0x40 MSTORE POP DUP2 ADD SWAP1 PUSH2 0x1422 SWAP2 SWAP1 PUSH2 0x1D82 JUMP JUMPDEST POP PUSH1 0x1 SWAP2 POP POP SWAP1 JUMP JUMPDEST PUSH1 0x0 PUSH1 0x40 MLOAD SWAP1 POP SWAP1 JUMP JUMPDEST PUSH1 0x0 DUP1 REVERT JUMPDEST PUSH1 0x0 DUP1 REVERT JUMPDEST PUSH1 0x0 DUP2 SWAP1 POP SWAP2 SWAP1 POP JUMP JUMPDEST PUSH2 0x1452 DUP2 PUSH2 0x143F JUMP JUMPDEST DUP2 EQ PUSH2 0x145D JUMPI PUSH1 0x0 DUP1 REVERT JUMPDEST POP JUMP JUMPDEST PUSH1 0x0 DUP2 CALLDATALOAD SWAP1 POP PUSH2 0x146F DUP2 PUSH2 0x1449 JUMP JUMPDEST SWAP3 SWAP2 POP POP JUMP JUMPDEST PUSH1 0x0 PUSH1 0x20 DUP3 DUP5 SUB SLT ISZERO PUSH2 0x148B JUMPI PUSH2 0x148A PUSH2 0x1435 JUMP JUMPDEST JUMPDEST PUSH1 0x0 PUSH2 0x1499 DUP5 DUP3 DUP6 ADD PUSH2 0x1460 JUMP JUMPDEST SWAP2 POP POP SWAP3 SWAP2 POP POP JUMP JUMPDEST PUSH1 0x0 DUP2 ISZERO ISZERO SWAP1 POP SWAP2 SWAP1 POP JUMP JUMPDEST PUSH2 0x14B7 DUP2 PUSH2 0x14A2 JUMP JUMPDEST DUP3 MSTORE POP POP JUMP JUMPDEST PUSH1 0x0 PUSH1 0x20 DUP3 ADD SWAP1 POP PUSH2 0x14D2 PUSH1 0x0 DUP4 ADD DUP5 PUSH2 0x14AE JUMP JUMPDEST SWAP3 SWAP2 POP POP JUMP JUMPDEST PUSH1 0x0 PUSH20 0xFFFFFFFFFFFFFFFFFFFFFFFFFFFFFFFFFFFFFFFF DUP3 AND SWAP1 POP SWAP2 SWAP1 POP JUMP JUMPDEST PUSH1 0x0 PUSH2 0x1503 DUP3 PUSH2 0x14D8 JUMP JUMPDEST SWAP1 POP SWAP2 SWAP1 POP JUMP JUMPDEST PUSH2 0x1513 DUP2 PUSH2 0x14F8 JUMP JUMPDEST DUP2 EQ PUSH2 0x151E JUMPI PUSH1 0x0 DUP1 REVERT JUMPDEST POP JUMP JUMPDEST PUSH1 0x0 DUP2 CALLDATALOAD SWAP1 POP PUSH2 0x1530 DUP2 PUSH2 0x150A JUMP JUMPDEST SWAP3 SWAP2 POP POP JUMP JUMPDEST PUSH1 0x0 PUSH1 0x20 DUP3 DUP5 SUB SLT ISZERO PUSH2 0x154C JUMPI PUSH2 0x154B PUSH2 0x1435 JUMP JUMPDEST JUMPDEST PUSH1 0x0 PUSH2 0x155A DUP5 DUP3 DUP6 ADD PUSH2 0x1521 JUMP JUMPDEST SWAP2 POP POP SWAP3 SWAP2 POP POP JUMP JUMPDEST PUSH1 0x0 DUP2 MLOAD SWAP1 POP SWAP2 SWAP1 POP JUMP JUMPDEST PUSH1 0x0 DUP3 DUP3 MSTORE PUSH1 0x20 DUP3 ADD SWAP1 POP SWAP3 SWAP2 POP POP JUMP JUMPDEST PUSH1 0x0 DUP2 SWAP1 POP PUSH1 0x20 DUP3 ADD SWAP1 POP SWAP2 SWAP1 POP JUMP JUMPDEST PUSH2 0x1598 DUP2 PUSH2 0x14F8 JUMP JUMPDEST DUP3 MSTORE POP POP JUMP JUMPDEST PUSH2 0x15A7 DUP2 PUSH2 0x143F JUMP JUMPDEST DUP3 MSTORE POP POP JUMP JUMPDEST PUSH1 0x80 DUP3 ADD PUSH1 0x0 DUP3 ADD MLOAD PUSH2 0x15C3 PUSH1 0x0 DUP6 ADD DUP3 PUSH2 0x158F JUMP JUMPDEST POP PUSH1 0x20 DUP3 ADD MLOAD PUSH2 0x15D6 PUSH1 0x20 DUP6 ADD DUP3 PUSH2 0x159E JUMP JUMPDEST POP PUSH1 0x40 DUP3 ADD MLOAD PUSH2 0x15E9 PUSH1 0x40 DUP6 ADD DUP3 PUSH2 0x159E JUMP JUMPDEST POP PUSH1 0x60 DUP3 ADD MLOAD PUSH2 0x15FC PUSH1 0x60 DUP6 ADD DUP3 PUSH2 0x159E JUMP JUMPDEST POP POP POP POP JUMP JUMPDEST PUSH1 0x0 PUSH2 0x160E DUP4 DUP4 PUSH2 0x15AD JUMP JUMPDEST PUSH1 0x80 DUP4 ADD SWAP1 POP SWAP3 SWAP2 POP POP JUMP JUMPDEST PUSH1 0x0 PUSH1 0x20 DUP3 ADD SWAP1 POP SWAP2 SWAP1 POP JUMP JUMPDEST PUSH1 0x0 PUSH2 0x1632 DUP3 PUSH2 0x1563 JUMP JUMPDEST PUSH2 0x163C DUP2 DUP6 PUSH2 0x156E JUMP JUMPDEST SWAP4 POP PUSH2 0x1647 DUP4 PUSH2 0x157F JUMP JUMPDEST DUP1 PUSH1 0x0 JUMPDEST DUP4 DUP2 LT ISZERO PUSH2 0x1678 JUMPI DUP2 MLOAD PUSH2 0x165F DUP9 DUP3 PUSH2 0x1602 JUMP JUMPDEST SWAP8 POP PUSH2 0x166A DUP4 PUSH2 0x161A JUMP JUMPDEST SWAP3 POP POP PUSH1 0x1 DUP2 ADD SWAP1 POP PUSH2 0x164B JUMP JUMPDEST POP DUP6 SWAP4 POP POP POP POP SWAP3 SWAP2 POP POP JUMP JUMPDEST PUSH1 0x0 PUSH1 0x20 DUP3 ADD SWAP1 POP DUP2 DUP2 SUB PUSH1 0x0 DUP4 ADD MSTORE PUSH2 0x169F DUP2 DUP5 PUSH2 0x1627 JUMP JUMPDEST SWAP1 POP SWAP3 SWAP2 POP POP JUMP JUMPDEST PUSH1 0x0 DUP1 REVERT JUMPDEST PUSH1 0x0 PUSH1 0x1F NOT PUSH1 0x1F DUP4 ADD AND SWAP1 POP SWAP2 SWAP1 POP JUMP JUMPDEST PUSH32 0x4E487B7100000000000000000000000000000000000000000000000000000000 PUSH1 0x0 MSTORE PUSH1 0x41 PUSH1 0x4 MSTORE PUSH1 0x24 PUSH1 0x0 REVERT JUMPDEST PUSH2 0x16F5 DUP3 PUSH2 0x16AC JUMP JUMPDEST DUP2 ADD DUP2 DUP2 LT PUSH8 0xFFFFFFFFFFFFFFFF DUP3 GT OR ISZERO PUSH2 0x1714 JUMPI PUSH2 0x1713 PUSH2 0x16BD JUMP JUMPDEST JUMPDEST DUP1 PUSH1 0x40 MSTORE POP POP POP JUMP JUMPDEST PUSH1 0x0 PUSH2 0x1727 PUSH2 0x142B JUMP JUMPDEST SWAP1 POP PUSH2 0x1733 DUP3 DUP3 PUSH2 0x16EC JUMP JUMPDEST SWAP2 SWAP1 POP JUMP JUMPDEST PUSH1 0x0 PUSH8 0xFFFFFFFFFFFFFFFF DUP3 GT ISZERO PUSH2 0x1753 JUMPI PUSH2 0x1752 PUSH2 0x16BD JUMP JUMPDEST JUMPDEST PUSH1 0x20 DUP3 MUL SWAP1 POP PUSH1 0x20 DUP2 ADD SWAP1 POP SWAP2 SWAP1 POP JUMP JUMPDEST PUSH1 0x0 DUP1 REVERT JUMPDEST PUSH1 0x0 PUSH2 0x1774 DUP3 PUSH2 0x14F8 JUMP JUMPDEST SWAP1 POP SWAP2 SWAP1 POP JUMP JUMPDEST PUSH2 0x1784 DUP2 PUSH2 0x1769 JUMP JUMPDEST DUP2 EQ PUSH2 0x178F JUMPI PUSH1 0x0 DUP1 REVERT JUMPDEST POP JUMP JUMPDEST PUSH1 0x0 DUP2 CALLDATALOAD SWAP1 POP PUSH2 0x17A1 DUP2 PUSH2 0x177B JUMP JUMPDEST SWAP3 SWAP2 POP POP JUMP JUMPDEST PUSH1 0x0 PUSH2 0x17BA PUSH2 0x17B5 DUP5 PUSH2 0x1738 JUMP JUMPDEST PUSH2 0x171D JUMP JUMPDEST SWAP1 POP DUP1 DUP4 DUP3 MSTORE PUSH1 0x20 DUP3 ADD SWAP1 POP PUSH1 0x20 DUP5 MUL DUP4 ADD DUP6 DUP2 GT ISZERO PUSH2 0x17DD JUMPI PUSH2 0x17DC PUSH2 0x1764 JUMP JUMPDEST JUMPDEST DUP4 JUMPDEST DUP2 DUP2 LT ISZERO PUSH2 0x1806 JUMPI DUP1 PUSH2 0x17F2 DUP9 DUP3 PUSH2 0x1792 JUMP JUMPDEST DUP5 MSTORE PUSH1 0x20 DUP5 ADD SWAP4 POP POP PUSH1 0x20 DUP2 ADD SWAP1 POP PUSH2 0x17DF JUMP JUMPDEST POP POP POP SWAP4 SWAP3 POP POP POP JUMP JUMPDEST PUSH1 0x0 DUP3 PUSH1 0x1F DUP4 ADD SLT PUSH2 0x1825 JUMPI PUSH2 0x1824 PUSH2 0x16A7 JUMP JUMPDEST JUMPDEST DUP2 CALLDATALOAD PUSH2 0x1835 DUP5 DUP3 PUSH1 0x20 DUP7 ADD PUSH2 0x17A7 JUMP JUMPDEST SWAP2 POP POP SWAP3 SWAP2 POP POP JUMP JUMPDEST PUSH1 0x0 PUSH8 0xFFFFFFFFFFFFFFFF DUP3 GT ISZERO PUSH2 0x1859 JUMPI PUSH2 0x1858 PUSH2 0x16BD JUMP JUMPDEST JUMPDEST PUSH1 0x20 DUP3 MUL SWAP1 POP PUSH1 0x20 DUP2 ADD SWAP1 POP SWAP2 SWAP1 POP JUMP JUMPDEST PUSH1 0x0 PUSH2 0x187D PUSH2 0x1878 DUP5 PUSH2 0x183E JUMP JUMPDEST PUSH2 0x171D JUMP JUMPDEST SWAP1 POP DUP1 DUP4 DUP3 MSTORE PUSH1 0x20 DUP3 ADD SWAP1 POP PUSH1 0x20 DUP5 MUL DUP4 ADD DUP6 DUP2 GT ISZERO PUSH2 0x18A0 JUMPI PUSH2 0x189F PUSH2 0x1764 JUMP JUMPDEST JUMPDEST DUP4 JUMPDEST DUP2 DUP2 LT ISZERO PUSH2 0x18C9 JUMPI DUP1 PUSH2 0x18B5 DUP9 DUP3 PUSH2 0x1460 JUMP JUMPDEST DUP5 MSTORE PUSH1 0x20 DUP5 ADD SWAP4 POP POP PUSH1 0x20 DUP2 ADD SWAP1 POP PUSH2 0x18A2 JUMP JUMPDEST POP POP POP SWAP4 SWAP3 POP POP POP JUMP JUMPDEST PUSH1 0x0 DUP3 PUSH1 0x1F DUP4 ADD SLT PUSH2 0x18E8 JUMPI PUSH2 0x18E7 PUSH2 0x16A7 JUMP JUMPDEST JUMPDEST DUP2 CALLDATALOAD PUSH2 0x18F8 DUP5 DUP3 PUSH1 0x20 DUP7 ADD PUSH2 0x186A JUMP JUMPDEST SWAP2 POP POP SWAP3 SWAP2 POP POP JUMP JUMPDEST PUSH1 0x0 DUP1 REVERT JUMPDEST PUSH1 0x0 PUSH8 0xFFFFFFFFFFFFFFFF DUP3 GT ISZERO PUSH2 0x1921 JUMPI PUSH2 0x1920 PUSH2 0x16BD JUMP JUMPDEST JUMPDEST PUSH2 0x192A DUP3 PUSH2 0x16AC JUMP JUMPDEST SWAP1 POP PUSH1 0x20 DUP2 ADD SWAP1 POP SWAP2 SWAP1 POP JUMP JUMPDEST DUP3 DUP2 DUP4 CALLDATACOPY PUSH1 0x0 DUP4 DUP4 ADD MSTORE POP POP POP JUMP JUMPDEST PUSH1 0x0 PUSH2 0x1959 PUSH2 0x1954 DUP5 PUSH2 0x1906 JUMP JUMPDEST PUSH2 0x171D JUMP JUMPDEST SWAP1 POP DUP3 DUP2 MSTORE PUSH1 0x20 DUP2 ADD DUP5 DUP5 DUP5 ADD GT ISZERO PUSH2 0x1975 JUMPI PUSH2 0x1974 PUSH2 0x1901 JUMP JUMPDEST JUMPDEST PUSH2 0x1980 DUP5 DUP3 DUP6 PUSH2 0x1937 JUMP JUMPDEST POP SWAP4 SWAP3 POP POP POP JUMP JUMPDEST PUSH1 0x0 DUP3 PUSH1 0x1F DUP4 ADD SLT PUSH2 0x199D JUMPI PUSH2 0x199C PUSH2 0x16A7 JUMP JUMPDEST JUMPDEST DUP2 CALLDATALOAD PUSH2 0x19AD DUP5 DUP3 PUSH1 0x20 DUP7 ADD PUSH2 0x1946 JUMP JUMPDEST SWAP2 POP POP SWAP3 SWAP2 POP POP JUMP JUMPDEST PUSH1 0x0 DUP1 PUSH1 0x0 DUP1 PUSH1 0x80 DUP6 DUP8 SUB SLT ISZERO PUSH2 0x19D0 JUMPI PUSH2 0x19CF PUSH2 0x1435 JUMP JUMPDEST JUMPDEST PUSH1 0x0 DUP6 ADD CALLDATALOAD PUSH8 0xFFFFFFFFFFFFFFFF DUP2 GT ISZERO PUSH2 0x19EE JUMPI PUSH2 0x19ED PUSH2 0x143A JUMP JUMPDEST JUMPDEST PUSH2 0x19FA DUP8 DUP3 DUP9 ADD PUSH2 0x1810 JUMP JUMPDEST SWAP5 POP POP PUSH1 0x20 DUP6 ADD CALLDATALOAD PUSH8 0xFFFFFFFFFFFFFFFF DUP2 GT ISZERO PUSH2 0x1A1B JUMPI PUSH2 0x1A1A PUSH2 0x143A JUMP JUMPDEST JUMPDEST PUSH2 0x1A27 DUP8 DUP3 DUP9 ADD PUSH2 0x18D3 JUMP JUMPDEST SWAP4 POP POP PUSH1 0x40 DUP6 ADD CALLDATALOAD PUSH8 0xFFFFFFFFFFFFFFFF DUP2 GT ISZERO PUSH2 0x1A48 JUMPI PUSH2 0x1A47 PUSH2 0x143A JUMP JUMPDEST JUMPDEST PUSH2 0x1A54 DUP8 DUP3 DUP9 ADD PUSH2 0x18D3 JUMP JUMPDEST SWAP3 POP POP PUSH1 0x60 DUP6 ADD CALLDATALOAD PUSH8 0xFFFFFFFFFFFFFFFF DUP2 GT ISZERO PUSH2 0x1A75 JUMPI PUSH2 0x1A74 PUSH2 0x143A JUMP JUMPDEST JUMPDEST PUSH2 0x1A81 DUP8 DUP3 DUP9 ADD PUSH2 0x1988 JUMP JUMPDEST SWAP2 POP POP SWAP3 SWAP6 SWAP2 SWAP5 POP SWAP3 POP JUMP JUMPDEST PUSH1 0x0 DUP3 DUP3 MSTORE PUSH1 0x20 DUP3 ADD SWAP1 POP SWAP3 SWAP2 POP POP JUMP JUMPDEST PUSH32 0x4C65766572616765645969656C644661726D3A2063616C6C6572206973206E6F PUSH1 0x0 DUP3 ADD MSTORE PUSH32 0x7420746865206F776E6572210000000000000000000000000000000000000000 PUSH1 0x20 DUP3 ADD MSTORE POP JUMP JUMPDEST PUSH1 0x0 PUSH2 0x1AFA PUSH1 0x2C DUP4 PUSH2 0x1A8D JUMP JUMPDEST SWAP2 POP PUSH2 0x1B05 DUP3 PUSH2 0x1A9E JUMP JUMPDEST PUSH1 0x40 DUP3 ADD SWAP1 POP SWAP2 SWAP1 POP JUMP JUMPDEST PUSH1 0x0 PUSH1 0x20 DUP3 ADD SWAP1 POP DUP2 DUP2 SUB PUSH1 0x0 DUP4 ADD MSTORE PUSH2 0x1B29 DUP2 PUSH2 0x1AED JUMP JUMPDEST SWAP1 POP SWAP2 SWAP1 POP JUMP JUMPDEST PUSH32 0x4E487B7100000000000000000000000000000000000000000000000000000000 PUSH1 0x0 MSTORE PUSH1 0x11 PUSH1 0x4 MSTORE PUSH1 0x24 PUSH1 0x0 REVERT JUMPDEST PUSH1 0x0 PUSH2 0x1B6A DUP3 PUSH2 0x143F JUMP JUMPDEST SWAP2 POP PUSH2 0x1B75 DUP4 PUSH2 0x143F JUMP JUMPDEST SWAP3 POP DUP3 DUP3 MUL PUSH2 0x1B83 DUP2 PUSH2 0x143F JUMP JUMPDEST SWAP2 POP DUP3 DUP3 DIV DUP5 EQ DUP4 ISZERO OR PUSH2 0x1B9A JUMPI PUSH2 0x1B99 PUSH2 0x1B30 JUMP JUMPDEST JUMPDEST POP SWAP3 SWAP2 POP POP JUMP JUMPDEST PUSH32 0x4E487B7100000000000000000000000000000000000000000000000000000000 PUSH1 0x0 MSTORE PUSH1 0x12 PUSH1 0x4 MSTORE PUSH1 0x24 PUSH1 0x0 REVERT JUMPDEST PUSH1 0x0 PUSH2 0x1BDB DUP3 PUSH2 0x143F JUMP JUMPDEST SWAP2 POP PUSH2 0x1BE6 DUP4 PUSH2 0x143F JUMP JUMPDEST SWAP3 POP DUP3 PUSH2 0x1BF6 JUMPI PUSH2 0x1BF5 PUSH2 0x1BA1 JUMP JUMPDEST JUMPDEST DUP3 DUP3 DIV SWAP1 POP SWAP3 SWAP2 POP POP JUMP JUMPDEST PUSH1 0x0 PUSH2 0x1C0C DUP3 PUSH2 0x143F JUMP JUMPDEST SWAP2 POP PUSH2 0x1C17 DUP4 PUSH2 0x143F JUMP JUMPDEST SWAP3 POP DUP3 DUP3 SUB SWAP1 POP DUP2 DUP2 GT ISZERO PUSH2 0x1C2F JUMPI PUSH2 0x1C2E PUSH2 0x1B30 JUMP JUMPDEST JUMPDEST SWAP3 SWAP2 POP POP JUMP JUMPDEST PUSH32 0x4E487B7100000000000000000000000000000000000000000000000000000000 PUSH1 0x0 MSTORE PUSH1 0x32 PUSH1 0x4 MSTORE PUSH1 0x24 PUSH1 0x0 REVERT JUMPDEST PUSH2 0x1C6D DUP2 PUSH2 0x14F8 JUMP JUMPDEST DUP3 MSTORE POP POP JUMP JUMPDEST PUSH1 0x0 DUP2 MLOAD SWAP1 POP SWAP2 SWAP1 POP JUMP JUMPDEST PUSH1 0x0 DUP3 DUP3 MSTORE PUSH1 0x20 DUP3 ADD SWAP1 POP SWAP3 SWAP2 POP POP JUMP JUMPDEST PUSH1 0x0 DUP2 SWAP1 POP PUSH1 0x20 DUP3 ADD SWAP1 POP SWAP2 SWAP1 POP JUMP JUMPDEST PUSH1 0x0 PUSH2 0x1CAB DUP4 DUP4 PUSH2 0x158F JUMP JUMPDEST PUSH1 0x20 DUP4 ADD SWAP1 POP SWAP3 SWAP2 POP POP JUMP JUMPDEST PUSH1 0x0 PUSH1 0x20 DUP3 ADD SWAP1 POP SWAP2 SWAP1 POP JUMP JUMPDEST PUSH1 0x0 PUSH2 0x1CCF DUP3 PUSH2 0x1C73 JUMP JUMPDEST PUSH2 0x1CD9 DUP2 DUP6 PUSH2 0x1C7E JUMP JUMPDEST SWAP4 POP PUSH2 0x1CE4 DUP4 PUSH2 0x1C8F JUMP JUMPDEST DUP1 PUSH1 0x0 JUMPDEST DUP4 DUP2 LT ISZERO PUSH2 0x1D15 JUMPI DUP2 MLOAD PUSH2 0x1CFC DUP9 DUP3 PUSH2 0x1C9F JUMP JUMPDEST SWAP8 POP PUSH2 0x1D07 DUP4 PUSH2 0x1CB7 JUMP JUMPDEST SWAP3 POP POP PUSH1 0x1 DUP2 ADD SWAP1 POP PUSH2 0x1CE8 JUMP JUMPDEST POP DUP6 SWAP4 POP POP POP POP SWAP3 SWAP2 POP POP JUMP JUMPDEST PUSH1 0x0 PUSH1 0x40 DUP3 ADD SWAP1 POP PUSH2 0x1D37 PUSH1 0x0 DUP4 ADD DUP6 PUSH2 0x1C64 JUMP JUMPDEST DUP2 DUP2 SUB PUSH1 0x20 DUP4 ADD MSTORE PUSH2 0x1D49 DUP2 DUP5 PUSH2 0x1CC4 JUMP JUMPDEST SWAP1 POP SWAP4 SWAP3 POP POP POP JUMP JUMPDEST PUSH1 0x0 PUSH1 0x20 DUP3 ADD SWAP1 POP PUSH2 0x1D67 PUSH1 0x0 DUP4 ADD DUP5 PUSH2 0x1C64 JUMP JUMPDEST SWAP3 SWAP2 POP POP JUMP JUMPDEST PUSH1 0x0 DUP2 MLOAD SWAP1 POP PUSH2 0x1D7C DUP2 PUSH2 0x1449 JUMP JUMPDEST SWAP3 SWAP2 POP POP JUMP JUMPDEST PUSH1 0x0 PUSH1 0x20 DUP3 DUP5 SUB SLT ISZERO PUSH2 0x1D98 JUMPI PUSH2 0x1D97 PUSH2 0x1435 JUMP JUMPDEST JUMPDEST PUSH1 0x0 PUSH2 0x1DA6 DUP5 DUP3 DUP6 ADD PUSH2 0x1D6D JUMP JUMPDEST SWAP2 POP POP SWAP3 SWAP2 POP POP JUMP JUMPDEST PUSH2 0x1DB8 DUP2 PUSH2 0x143F JUMP JUMPDEST DUP3 MSTORE POP POP JUMP JUMPDEST PUSH1 0x0 PUSH1 0x40 DUP3 ADD SWAP1 POP PUSH2 0x1DD3 PUSH1 0x0 DUP4 ADD DUP6 PUSH2 0x1C64 JUMP JUMPDEST PUSH2 0x1DE0 PUSH1 0x20 DUP4 ADD DUP5 PUSH2 0x1DAF JUMP JUMPDEST SWAP4 SWAP3 POP POP POP JUMP JUMPDEST PUSH2 0x1DF0 DUP2 PUSH2 0x14A2 JUMP JUMPDEST DUP2 EQ PUSH2 0x1DFB JUMPI PUSH1 0x0 DUP1 REVERT JUMPDEST POP JUMP JUMPDEST PUSH1 0x0 DUP2 MLOAD SWAP1 POP PUSH2 0x1E0D DUP2 PUSH2 0x1DE7 JUMP JUMPDEST SWAP3 SWAP2 POP POP JUMP JUMPDEST PUSH1 0x0 PUSH1 0x20 DUP3 DUP5 SUB SLT ISZERO PUSH2 0x1E29 JUMPI PUSH2 0x1E28 PUSH2 0x1435 JUMP JUMPDEST JUMPDEST PUSH1 0x0 PUSH2 0x1E37 DUP5 DUP3 DUP6 ADD PUSH2 0x1DFE JUMP JUMPDEST SWAP2 POP POP SWAP3 SWAP2 POP POP JUMP JUMPDEST PUSH1 0x0 DUP2 SWAP1 POP SWAP2 SWAP1 POP JUMP JUMPDEST PUSH1 0x0 PUSH2 0x1E65 PUSH2 0x1E60 PUSH2 0x1E5B DUP5 PUSH2 0x14D8 JUMP JUMPDEST PUSH2 0x1E40 JUMP JUMPDEST PUSH2 0x14D8 JUMP JUMPDEST SWAP1 POP SWAP2 SWAP1 POP JUMP JUMPDEST PUSH1 0x0 PUSH2 0x1E77 DUP3 PUSH2 0x1E4A JUMP JUMPDEST SWAP1 POP SWAP2 SWAP1 POP JUMP JUMPDEST PUSH1 0x0 PUSH2 0x1E89 DUP3 PUSH2 0x1E6C JUMP JUMPDEST SWAP1 POP SWAP2 SWAP1 POP JUMP JUMPDEST PUSH2 0x1E99 DUP2 PUSH2 0x1E7E JUMP JUMPDEST DUP3 MSTORE POP POP JUMP JUMPDEST PUSH1 0x0 PUSH1 0x40 DUP3 ADD SWAP1 POP PUSH2 0x1EB4 PUSH1 0x0 DUP4 ADD DUP6 PUSH2 0x1E90 JUMP JUMPDEST PUSH2 0x1EC1 PUSH1 0x20 DUP4 ADD DUP5 PUSH2 0x1C64 JUMP JUMPDEST SWAP4 SWAP3 POP POP POP JUMP JUMPDEST PUSH1 0x0 PUSH8 0xFFFFFFFFFFFFFFFF DUP3 GT ISZERO PUSH2 0x1EE3 JUMPI PUSH2 0x1EE2 PUSH2 0x16BD JUMP JUMPDEST JUMPDEST PUSH1 0x20 DUP3 MUL SWAP1 POP PUSH1 0x20 DUP2 ADD SWAP1 POP SWAP2 SWAP1 POP JUMP JUMPDEST PUSH1 0x0 DUP1 REVERT JUMPDEST PUSH1 0x0 DUP2 MLOAD SWAP1 POP PUSH2 0x1F08 DUP2 PUSH2 0x150A JUMP JUMPDEST SWAP3 SWAP2 POP POP JUMP JUMPDEST PUSH1 0x0 PUSH1 0x80 DUP3 DUP5 SUB SLT ISZERO PUSH2 0x1F24 JUMPI PUSH2 0x1F23 PUSH2 0x1EF4 JUMP JUMPDEST JUMPDEST PUSH2 0x1F2E PUSH1 0x80 PUSH2 0x171D JUMP JUMPDEST SWAP1 POP PUSH1 0x0 PUSH2 0x1F3E DUP5 DUP3 DUP6 ADD PUSH2 0x1EF9 JUMP JUMPDEST PUSH1 0x0 DUP4 ADD MSTORE POP PUSH1 0x20 PUSH2 0x1F52 DUP5 DUP3 DUP6 ADD PUSH2 0x1D6D JUMP JUMPDEST PUSH1 0x20 DUP4 ADD MSTORE POP PUSH1 0x40 PUSH2 0x1F66 DUP5 DUP3 DUP6 ADD PUSH2 0x1D6D JUMP JUMPDEST PUSH1 0x40 DUP4 ADD MSTORE POP PUSH1 0x60 PUSH2 0x1F7A DUP5 DUP3 DUP6 ADD PUSH2 0x1D6D JUMP JUMPDEST PUSH1 0x60 DUP4 ADD MSTORE POP SWAP3 SWAP2 POP POP JUMP JUMPDEST PUSH1 0x0 PUSH2 0x1F99 PUSH2 0x1F94 DUP5 PUSH2 0x1EC8 JUMP JUMPDEST PUSH2 0x171D JUMP JUMPDEST SWAP1 POP DUP1 DUP4 DUP3 MSTORE PUSH1 0x20 DUP3 ADD SWAP1 POP PUSH1 0x80 DUP5 MUL DUP4 ADD DUP6 DUP2 GT ISZERO PUSH2 0x1FBC JUMPI PUSH2 0x1FBB PUSH2 0x1764 JUMP JUMPDEST JUMPDEST DUP4 JUMPDEST DUP2 DUP2 LT ISZERO PUSH2 0x1FE5 JUMPI DUP1 PUSH2 0x1FD1 DUP9 DUP3 PUSH2 0x1F0E JUMP JUMPDEST DUP5 MSTORE PUSH1 0x20 DUP5 ADD SWAP4 POP POP PUSH1 0x80 DUP2 ADD SWAP1 POP PUSH2 0x1FBE JUMP JUMPDEST POP POP POP SWAP4 SWAP3 POP POP POP JUMP JUMPDEST PUSH1 0x0 DUP3 PUSH1 0x1F DUP4 ADD SLT PUSH2 0x2004 JUMPI PUSH2 0x2003 PUSH2 0x16A7 JUMP JUMPDEST JUMPDEST DUP2 MLOAD PUSH2 0x2014 DUP5 DUP3 PUSH1 0x20 DUP7 ADD PUSH2 0x1F86 JUMP JUMPDEST SWAP2 POP POP SWAP3 SWAP2 POP POP JUMP JUMPDEST PUSH1 0x0 PUSH1 0x20 DUP3 DUP5 SUB SLT ISZERO PUSH2 0x2033 JUMPI PUSH2 0x2032 PUSH2 0x1435 JUMP JUMPDEST JUMPDEST PUSH1 0x0 DUP3 ADD MLOAD PUSH8 0xFFFFFFFFFFFFFFFF DUP2 GT ISZERO PUSH2 0x2051 JUMPI PUSH2 0x2050 PUSH2 0x143A JUMP JUMPDEST JUMPDEST PUSH2 0x205D DUP5 DUP3 DUP6 ADD PUSH2 0x1FEF JUMP JUMPDEST SWAP2 POP POP SWAP3 SWAP2 POP POP JUMP JUMPDEST PUSH32 0x4C65766572616765645969656C644661726D3A204E6F742042616C616E636572 PUSH1 0x0 DUP3 ADD MSTORE PUSH32 0x2100000000000000000000000000000000000000000000000000000000000000 PUSH1 0x20 DUP3 ADD MSTORE POP JUMP JUMPDEST PUSH1 0x0 PUSH2 0x20C2 PUSH1 0x21 DUP4 PUSH2 0x1A8D JUMP JUMPDEST SWAP2 POP PUSH2 0x20CD DUP3 PUSH2 0x2066 JUMP JUMPDEST PUSH1 0x40 DUP3 ADD SWAP1 POP SWAP2 SWAP1 POP JUMP JUMPDEST PUSH1 0x0 PUSH1 0x20 DUP3 ADD SWAP1 POP DUP2 DUP2 SUB PUSH1 0x0 DUP4 ADD MSTORE PUSH2 0x20F1 DUP2 PUSH2 0x20B5 JUMP JUMPDEST SWAP1 POP SWAP2 SWAP1 POP JUMP JUMPDEST PUSH1 0x0 PUSH1 0x80 DUP3 DUP5 SUB SLT ISZERO PUSH2 0x210E JUMPI PUSH2 0x210D PUSH2 0x1EF4 JUMP JUMPDEST JUMPDEST PUSH2 0x2118 PUSH1 0x80 PUSH2 0x171D JUMP JUMPDEST SWAP1 POP PUSH1 0x0 PUSH2 0x2128 DUP5 DUP3 DUP6 ADD PUSH2 0x1EF9 JUMP JUMPDEST PUSH1 0x0 DUP4 ADD MSTORE POP PUSH1 0x20 PUSH2 0x213C DUP5 DUP3 DUP6 ADD PUSH2 0x1D6D JUMP JUMPDEST PUSH1 0x20 DUP4 ADD MSTORE POP PUSH1 0x40 PUSH2 0x2150 DUP5 DUP3 DUP6 ADD PUSH2 0x1D6D JUMP JUMPDEST PUSH1 0x40 DUP4 ADD MSTORE POP PUSH1 0x60 PUSH2 0x2164 DUP5 DUP3 DUP6 ADD PUSH2 0x1DFE JUMP JUMPDEST PUSH1 0x60 DUP4 ADD MSTORE POP SWAP3 SWAP2 POP POP JUMP JUMPDEST PUSH1 0x0 PUSH1 0x80 DUP3 DUP5 SUB SLT ISZERO PUSH2 0x2186 JUMPI PUSH2 0x2185 PUSH2 0x1435 JUMP JUMPDEST JUMPDEST PUSH1 0x0 PUSH2 0x2194 DUP5 DUP3 DUP6 ADD PUSH2 0x20F8 JUMP JUMPDEST SWAP2 POP POP SWAP3 SWAP2 POP POP JUMP JUMPDEST PUSH1 0x0 PUSH2 0x21A8 DUP3 PUSH2 0x143F JUMP JUMPDEST SWAP2 POP PUSH2 0x21B3 DUP4 PUSH2 0x143F JUMP JUMPDEST SWAP3 POP DUP3 DUP3 ADD SWAP1 POP DUP1 DUP3 GT ISZERO PUSH2 0x21CB JUMPI PUSH2 0x21CA PUSH2 0x1B30 JUMP JUMPDEST JUMPDEST SWAP3 SWAP2 POP POP JUMP JUMPDEST PUSH32 0x4C65766572616765645969656C644661726D3A204E6F7420656E6F7567682066 PUSH1 0x0 DUP3 ADD MSTORE PUSH32 0x756E647320746F2072657061792042616C616E636572206C6F616E2100000000 PUSH1 0x20 DUP3 ADD MSTORE POP JUMP JUMPDEST PUSH1 0x0 PUSH2 0x222D PUSH1 0x3C DUP4 PUSH2 0x1A8D JUMP JUMPDEST SWAP2 POP PUSH2 0x2238 DUP3 PUSH2 0x21D1 JUMP JUMPDEST PUSH1 0x40 DUP3 ADD SWAP1 POP SWAP2 SWAP1 POP JUMP JUMPDEST PUSH1 0x0 PUSH1 0x20 DUP3 ADD SWAP1 POP DUP2 DUP2 SUB PUSH1 0x0 DUP4 ADD MSTORE PUSH2 0x225C DUP2 PUSH2 0x2220 JUMP JUMPDEST SWAP1 POP SWAP2 SWAP1 POP JUMP JUMPDEST PUSH2 0x226C DUP2 PUSH2 0x14A2 JUMP JUMPDEST DUP3 MSTORE POP POP JUMP JUMPDEST PUSH1 0x80 DUP3 ADD PUSH1 0x0 DUP3 ADD MLOAD PUSH2 0x2288 PUSH1 0x0 DUP6 ADD DUP3 PUSH2 0x158F JUMP JUMPDEST POP PUSH1 0x20 DUP3 ADD MLOAD PUSH2 0x229B PUSH1 0x20 DUP6 ADD DUP3 PUSH2 0x159E JUMP JUMPDEST POP PUSH1 0x40 DUP3 ADD MLOAD PUSH2 0x22AE PUSH1 0x40 DUP6 ADD DUP3 PUSH2 0x159E JUMP JUMPDEST POP PUSH1 0x60 DUP3 ADD MLOAD PUSH2 0x22C1 PUSH1 0x60 DUP6 ADD DUP3 PUSH2 0x2263 JUMP JUMPDEST POP POP POP POP JUMP JUMPDEST PUSH1 0x0 PUSH1 0x80 DUP3 ADD SWAP1 POP PUSH2 0x22DC PUSH1 0x0 DUP4 ADD DUP5 PUSH2 0x2272 JUMP JUMPDEST SWAP3 SWAP2 POP POP JUMP JUMPDEST PUSH1 0x0 PUSH2 0x22ED DUP3 PUSH2 0x1E6C JUMP JUMPDEST SWAP1 POP SWAP2 SWAP1 POP JUMP JUMPDEST PUSH2 0x22FD DUP2 PUSH2 0x22E2 JUMP JUMPDEST DUP3 MSTORE POP POP JUMP JUMPDEST PUSH1 0x0 DUP2 MLOAD SWAP1 POP SWAP2 SWAP1 POP JUMP JUMPDEST PUSH1 0x0 DUP2 SWAP1 POP PUSH1 0x20 DUP3 ADD SWAP1 POP SWAP2 SWAP1 POP JUMP JUMPDEST PUSH1 0x0 PUSH2 0x2329 DUP3 PUSH2 0x1E6C JUMP JUMPDEST SWAP1 POP SWAP2 SWAP1 POP JUMP JUMPDEST PUSH2 0x2339 DUP2 PUSH2 0x231E JUMP JUMPDEST DUP3 MSTORE POP POP JUMP JUMPDEST PUSH1 0x0 PUSH2 0x234B DUP4 DUP4 PUSH2 0x2330 JUMP JUMPDEST PUSH1 0x20 DUP4 ADD SWAP1 POP SWAP3 SWAP2 POP POP JUMP JUMPDEST PUSH1 0x0 PUSH1 0x20 DUP3 ADD SWAP1 POP SWAP2 SWAP1 POP JUMP JUMPDEST PUSH1 0x0 PUSH2 0x236F DUP3 PUSH2 0x2303 JUMP JUMPDEST PUSH2 0x2379 DUP2 DUP6 PUSH2 0x1C7E JUMP JUMPDEST SWAP4 POP PUSH2 0x2384 DUP4 PUSH2 0x230E JUMP JUMPDEST DUP1 PUSH1 0x0 JUMPDEST DUP4 DUP2 LT ISZERO PUSH2 0x23B5 JUMPI DUP2 MLOAD PUSH2 0x239C DUP9 DUP3 PUSH2 0x233F JUMP JUMPDEST SWAP8 POP PUSH2 0x23A7 DUP4 PUSH2 0x2357 JUMP JUMPDEST SWAP3 POP POP PUSH1 0x1 DUP2 ADD SWAP1 POP PUSH2 0x2388 JUMP JUMPDEST POP DUP6 SWAP4 POP POP POP POP SWAP3 SWAP2 POP POP JUMP JUMPDEST PUSH1 0x0 DUP2 MLOAD SWAP1 POP SWAP2 SWAP1 POP JUMP JUMPDEST PUSH1 0x0 DUP3 DUP3 MSTORE PUSH1 0x20 DUP3 ADD SWAP1 POP SWAP3 SWAP2 POP POP JUMP JUMPDEST PUSH1 0x0 DUP2 SWAP1 POP PUSH1 0x20 DUP3 ADD SWAP1 POP SWAP2 SWAP1 POP JUMP JUMPDEST PUSH1 0x0 PUSH2 0x23FA DUP4 DUP4 PUSH2 0x159E JUMP JUMPDEST PUSH1 0x20 DUP4 ADD SWAP1 POP SWAP3 SWAP2 POP POP JUMP JUMPDEST PUSH1 0x0 PUSH1 0x20 DUP3 ADD SWAP1 POP SWAP2 SWAP1 POP JUMP JUMPDEST PUSH1 0x0 PUSH2 0x241E DUP3 PUSH2 0x23C2 JUMP JUMPDEST PUSH2 0x2428 DUP2 DUP6 PUSH2 0x23CD JUMP JUMPDEST SWAP4 POP PUSH2 0x2433 DUP4 PUSH2 0x23DE JUMP JUMPDEST DUP1 PUSH1 0x0 JUMPDEST DUP4 DUP2 LT ISZERO PUSH2 0x2464 JUMPI DUP2 MLOAD PUSH2 0x244B DUP9 DUP3 PUSH2 0x23EE JUMP JUMPDEST SWAP8 POP PUSH2 0x2456 DUP4 PUSH2 0x2406 JUMP JUMPDEST SWAP3 POP POP PUSH1 0x1 DUP2 ADD SWAP1 POP PUSH2 0x2437 JUMP JUMPDEST POP DUP6 SWAP4 POP POP POP POP SWAP3 SWAP2 POP POP JUMP JUMPDEST PUSH1 0x0 DUP2 MLOAD SWAP1 POP SWAP2 SWAP1 POP JUMP JUMPDEST PUSH1 0x0 DUP3 DUP3 MSTORE PUSH1 0x20 DUP3 ADD SWAP1 POP SWAP3 SWAP2 POP POP JUMP JUMPDEST PUSH1 0x0 JUMPDEST DUP4 DUP2 LT ISZERO PUSH2 0x24AB JUMPI DUP1 DUP3 ADD MLOAD DUP2 DUP5 ADD MSTORE PUSH1 0x20 DUP2 ADD SWAP1 POP PUSH2 0x2490 JUMP JUMPDEST PUSH1 0x0 DUP5 DUP5 ADD MSTORE POP POP POP POP JUMP JUMPDEST PUSH1 0x0 PUSH2 0x24C2 DUP3 PUSH2 0x2471 JUMP JUMPDEST PUSH2 0x24CC DUP2 DUP6 PUSH2 0x247C JUMP JUMPDEST SWAP4 POP PUSH2 0x24DC DUP2 DUP6 PUSH1 0x20 DUP7 ADD PUSH2 0x248D JUMP JUMPDEST PUSH2 0x24E5 DUP2 PUSH2 0x16AC JUMP JUMPDEST DUP5 ADD SWAP2 POP POP SWAP3 SWAP2 POP POP JUMP JUMPDEST PUSH1 0x0 PUSH1 0x80 DUP3 ADD SWAP1 POP PUSH2 0x2505 PUSH1 0x0 DUP4 ADD DUP8 PUSH2 0x22F4 JUMP JUMPDEST DUP2 DUP2 SUB PUSH1 0x20 DUP4 ADD MSTORE PUSH2 0x2517 DUP2 DUP7 PUSH2 0x2364 JUMP JUMPDEST SWAP1 POP DUP2 DUP2 SUB PUSH1 0x40 DUP4 ADD MSTORE PUSH2 0x252B DUP2 DUP6 PUSH2 0x2413 JUMP JUMPDEST SWAP1 POP DUP2 DUP2 SUB PUSH1 0x60 DUP4 ADD MSTORE PUSH2 0x253F DUP2 DUP5 PUSH2 0x24B7 JUMP JUMPDEST SWAP1 POP SWAP6 SWAP5 POP POP POP POP POP JUMP JUMPDEST PUSH1 0x0 PUSH1 0x20 DUP3 ADD SWAP1 POP PUSH2 0x255F PUSH1 0x0 DUP4 ADD DUP5 PUSH2 0x1DAF JUMP JUMPDEST SWAP3 SWAP2 POP POP JUMP INVALID LOG2 PUSH5 0x6970667358 0x22 SLT KECCAK256 DUP2 0xBE PUSH31 0xA7DF0EBAE28762498BB1F2B508ACFAC9C1EAE0C5502553034DE403F8F16473 PUSH16 0x6C634300081200330000000000000000 "},"methodIdentifiers":{"claimRewards(address)":"ef5cfb8c","deposit(uint256)":"b6b55f25","getOutstandingRewards(address)":"bce3b836","receiveFlashLoan(address[],uint256[],uint256[],bytes)":"f04f2707","withdraw(uint256)":"2e1a7d4d","withdrawToken(address)":"89476069"}}}}}