{
  "_format": "hh-sol-artifact-1",
  "contractName": "LeveragedYieldFarm",
  "sourceName": "contracts/LeveragedYieldFarm.sol",
  "abi": [
    {
      "inputs": [],
      "stateMutability": "nonpayable",
      "type": "constructor"
    },
    {
      "stateMutability": "nonpayable",
      "type": "fallback"
    },
    {
      "inputs": [
        {
          "internalType": "address",
          "name": "_tokenAddress",
          "type": "address"
        }
      ],
      "name": "claimRewards",
      "outputs": [],
      "stateMutability": "nonpayable",
      "type": "function"
    },
    {
      "inputs": [
        {
          "internalType": "uint256",
          "name": "initialAmount",
          "type": "uint256"
        }
      ],
      "name": "deposit",
      "outputs": [
        {
          "internalType": "bool",
          "name": "",
          "type": "bool"
        }
      ],
      "stateMutability": "nonpayable",
      "type": "function"
    },
    {
      "inputs": [
        {
          "internalType": "address",
          "name": "_tokenAddress",
          "type": "address"
        }
      ],
      "name": "getOutstandingRewards",
      "outputs": [
        {
          "components": [
            {
              "internalType": "address",
              "name": "emissionToken",
              "type": "address"
            },
            {
              "internalType": "uint256",
              "name": "totalAmount",
              "type": "uint256"
            },
            {
              "internalType": "uint256",
              "name": "supplySide",
              "type": "uint256"
            },
            {
              "internalType": "uint256",
              "name": "borrowSide",
              "type": "uint256"
            }
          ],
          "internalType": "struct IMultiRewardDistributor.RewardInfo[]",
          "name": "",
          "type": "tuple[]"
        }
      ],
      "stateMutability": "view",
      "type": "function"
    },
    {
      "inputs": [
        {
          "internalType": "contract IERC20[]",
          "name": "tokens",
          "type": "address[]"
        },
        {
          "internalType": "uint256[]",
          "name": "amounts",
          "type": "uint256[]"
        },
        {
          "internalType": "uint256[]",
          "name": "feeAmounts",
          "type": "uint256[]"
        },
        {
          "internalType": "bytes",
          "name": "userData",
          "type": "bytes"
        }
      ],
      "name": "receiveFlashLoan",
      "outputs": [],
      "stateMutability": "nonpayable",
      "type": "function"
    },
    {
      "inputs": [
        {
          "internalType": "uint256",
          "name": "initialAmount",
          "type": "uint256"
        }
      ],
      "name": "withdraw",
      "outputs": [
        {
          "internalType": "bool",
          "name": "",
          "type": "bool"
        }
      ],
      "stateMutability": "nonpayable",
      "type": "function"
    },
    {
      "inputs": [
        {
          "internalType": "address",
          "name": "_tokenAddress",
          "type": "address"
        }
      ],
      "name": "withdrawToken",
      "outputs": [],
      "stateMutability": "nonpayable",
      "type": "function"
    }
  ],
  "bytecode": "0x60a06040523480156200001157600080fd5b503373ffffffffffffffffffffffffffffffffffffffff1660808173ffffffffffffffffffffffffffffffffffffffff16815250506000600167ffffffffffffffff81111562000066576200006562000208565b5b604051908082528060200260200182016040528015620000955781602001602082028036833780820191505090505b50905073edc817a28e8b93b03976fbd4a3ddbc9f7d176c2281600081518110620000c457620000c362000237565b5b602002602001019073ffffffffffffffffffffffffffffffffffffffff16908173ffffffffffffffffffffffffffffffffffffffff1681525050600073fbb21d0380bee3312b33c4353c8936a0f13ef26c73ffffffffffffffffffffffffffffffffffffffff1663c2998238836040518263ffffffff1660e01b81526004016200014f919062000368565b6000604051808303816000875af11580156200016f573d6000803e3d6000fd5b505050506040513d6000823e3d601f19601f820116820180604052508101906200019a919062000521565b9050600081600081518110620001b557620001b462000237565b5b60200260200101511462000200576040517f08c379a0000000000000000000000000000000000000000000000000000000008152600401620001f790620005d3565b60405180910390fd5b5050620005f5565b7f4e487b7100000000000000000000000000000000000000000000000000000000600052604160045260246000fd5b7f4e487b7100000000000000000000000000000000000000000000000000000000600052603260045260246000fd5b600081519050919050565b600082825260208201905092915050565b6000819050602082019050919050565b600073ffffffffffffffffffffffffffffffffffffffff82169050919050565b6000620002bf8262000292565b9050919050565b620002d181620002b2565b82525050565b6000620002e58383620002c6565b60208301905092915050565b6000602082019050919050565b60006200030b8262000266565b62000317818562000271565b9350620003248362000282565b8060005b838110156200035b5781516200033f8882620002d7565b97506200034c83620002f1565b92505060018101905062000328565b5085935050505092915050565b60006020820190508181036000830152620003848184620002fe565b905092915050565b6000604051905090565b600080fd5b600080fd5b600080fd5b6000601f19601f8301169050919050565b620003c182620003a5565b810181811067ffffffffffffffff82111715620003e357620003e262000208565b5b80604052505050565b6000620003f86200038c565b9050620004068282620003b6565b919050565b600067ffffffffffffffff82111562000429576200042862000208565b5b602082029050602081019050919050565b600080fd5b6000819050919050565b62000454816200043f565b81146200046057600080fd5b50565b600081519050620004748162000449565b92915050565b6000620004916200048b846200040b565b620003ec565b90508083825260208201905060208402830185811115620004b757620004b66200043a565b5b835b81811015620004e45780620004cf888262000463565b845260208401935050602081019050620004b9565b5050509392505050565b600082601f830112620005065762000505620003a0565b5b8151620005188482602086016200047a565b91505092915050565b6000602082840312156200053a576200053962000396565b5b600082015167ffffffffffffffff8111156200055b576200055a6200039b565b5b6200056984828501620004ee565b91505092915050565b600082825260208201905092915050565b7f436f6d7074726f6c6c65722e656e7465724d61726b657473206661696c65642e600082015250565b6000620005bb60208362000572565b9150620005c88262000583565b602082019050919050565b60006020820190508181036000830152620005ee81620005ac565b9050919050565b60805161259b6200063b6000396000818161015401528181610393015281816104d3015281816105f001528181610718015281816107a1015261092c015261259b6000f3fe608060405234801561001057600080fd5b50600436106100665760003560e01c80632e1a7d4d1461006c578063894760691461009c578063b6b55f25146100b8578063bce3b836146100e8578063ef5cfb8c14610118578063f04f27071461013457610067565b5b600080fd5b61008660048036038101906100819190611475565b610150565b60405161009391906114bd565b60405180910390f35b6100b660048036038101906100b19190611536565b6105ee565b005b6100d260048036038101906100cd9190611475565b61079d565b6040516100df91906114bd565b60405180910390f35b61010260048036038101906100fd9190611536565b61088c565b60405161010f9190611685565b60405180910390f35b610132600480360381019061012d9190611536565b61092a565b005b61014e600480360381019061014991906119b6565b610ada565b005b60007f000000000000000000000000000000000000000000000000000000000000000073ffffffffffffffffffffffffffffffffffffffff163373ffffffffffffffffffffffffffffffffffffffff16146101e0576040517f08c379a00000000000000000000000000000000000000000000000000000000081526004016101d790611b10565b60405180910390fd5b60006003600a846101f19190611b5f565b6101fb9190611bd0565b90506000838261020b9190611c01565b9050600061022f73833589fcd6edb6e08f4c7c32d4f71b54bda02913838584610d6a565b6000600167ffffffffffffffff81111561024c5761024b6116bd565b5b60405190808252806020026020018201604052801561027a5781602001602082028036833780820191505090505b50905073edc817a28e8b93b03976fbd4a3ddbc9f7d176c22816000815181106102a6576102a5611c35565b5b602002602001019073ffffffffffffffffffffffffffffffffffffffff16908173ffffffffffffffffffffffffffffffffffffffff168152505073fbb21d0380bee3312b33c4353c8936a0f13ef26c73ffffffffffffffffffffffffffffffffffffffff16633685ffe730836040518363ffffffff1660e01b815260040161032f929190611d22565b600060405180830381600087803b15801561034957600080fd5b505af115801561035d573d6000803e3d6000fd5b5050505073a88594d404727625a9437c3f886c7643872296ae73ffffffffffffffffffffffffffffffffffffffff1663a9059cbb7f000000000000000000000000000000000000000000000000000000000000000073a88594d404727625a9437c3f886c7643872296ae73ffffffffffffffffffffffffffffffffffffffff166370a08231306040518263ffffffff1660e01b81526004016103ff9190611d52565b602060405180830381865afa15801561041c573d6000803e3d6000fd5b505050506040513d601f19601f820116820180604052508101906104409190611d82565b6040518363ffffffff1660e01b815260040161045d929190611dbe565b6020604051808303816000875af115801561047c573d6000803e3d6000fd5b505050506040513d601f19601f820116820180604052508101906104a09190611e13565b5073833589fcd6edb6e08f4c7c32d4f71b54bda0291373ffffffffffffffffffffffffffffffffffffffff1663a9059cbb7f000000000000000000000000000000000000000000000000000000000000000073833589fcd6edb6e08f4c7c32d4f71b54bda0291373ffffffffffffffffffffffffffffffffffffffff166370a08231306040518263ffffffff1660e01b815260040161053f9190611d52565b602060405180830381865afa15801561055c573d6000803e3d6000fd5b505050506040513d601f19601f820116820180604052508101906105809190611d82565b6040518363ffffffff1660e01b815260040161059d929190611dbe565b6020604051808303816000875af11580156105bc573d6000803e3d6000fd5b505050506040513d601f19601f820116820180604052508101906105e09190611e13565b506001945050505050919050565b7f000000000000000000000000000000000000000000000000000000000000000073ffffffffffffffffffffffffffffffffffffffff163373ffffffffffffffffffffffffffffffffffffffff161461067c576040517f08c379a000000000000000000000000000000000000000000000000000000000815260040161067390611b10565b60405180910390fd5b60008173ffffffffffffffffffffffffffffffffffffffff166370a08231306040518263ffffffff1660e01b81526004016106b79190611d52565b602060405180830381865afa1580156106d4573d6000803e3d6000fd5b505050506040513d601f19601f820116820180604052508101906106f89190611d82565b90508173ffffffffffffffffffffffffffffffffffffffff1663a9059cbb7f0000000000000000000000000000000000000000000000000000000000000000836040518363ffffffff1660e01b8152600401610755929190611dbe565b6020604051808303816000875af1158015610774573d6000803e3d6000fd5b505050506040513d601f19601f820116820180604052508101906107989190611e13565b505050565b60007f000000000000000000000000000000000000000000000000000000000000000073ffffffffffffffffffffffffffffffffffffffff163373ffffffffffffffffffffffffffffffffffffffff161461082d576040517f08c379a000000000000000000000000000000000000000000000000000000000815260040161082490611b10565b60405180910390fd5b60006003600a8461083e9190611b5f565b6108489190611bd0565b9050600083826108589190611c01565b905060006001905061088073833589fcd6edb6e08f4c7c32d4f71b54bda02913838584610d6a565b60019350505050919050565b606073e9005b078701e2a0948d2eac43010d35870ad9d273ffffffffffffffffffffffffffffffffffffffff166307e8ce8583306040518363ffffffff1660e01b81526004016108dd929190611e9f565b600060405180830381865afa1580156108fa573d6000803e3d6000fd5b505050506040513d6000823e3d601f19601f82011682018060405250810190610923919061201d565b9050919050565b7f000000000000000000000000000000000000000000000000000000000000000073ffffffffffffffffffffffffffffffffffffffff163373ffffffffffffffffffffffffffffffffffffffff16146109b8576040517f08c379a00000000000000000000000000000000000000000000000000000000081526004016109af90611b10565b60405180910390fd5b6000600167ffffffffffffffff8111156109d5576109d46116bd565b5b604051908082528060200260200182016040528015610a035781602001602082028036833780820191505090505b5090508181600081518110610a1b57610a1a611c35565b5b602002602001019073ffffffffffffffffffffffffffffffffffffffff16908173ffffffffffffffffffffffffffffffffffffffff168152505073fbb21d0380bee3312b33c4353c8936a0f13ef26c73ffffffffffffffffffffffffffffffffffffffff16633685ffe730836040518363ffffffff1660e01b8152600401610aa4929190611d22565b600060405180830381600087803b158015610abe57600080fd5b505af1158015610ad2573d6000803e3d6000fd5b505050505050565b73ba12222222228d8ba445958a75a0704d566bf2c873ffffffffffffffffffffffffffffffffffffffff163373ffffffffffffffffffffffffffffffffffffffff1614610b5c576040517f08c379a0000000000000000000000000000000000000000000000000000000008152600401610b53906120d8565b60405180910390fd5b600081806020019051810190610b729190612170565b90506000816000015173ffffffffffffffffffffffffffffffffffffffff166370a08231306040518263ffffffff1660e01b8152600401610bb39190611d52565b602060405180830381865afa158015610bd0573d6000803e3d6000fd5b505050506040513d601f19601f82011682018060405250810190610bf49190611d82565b905083600081518110610c0a57610c09611c35565b5b60200260200101518260200151610c21919061219d565b811015610c63576040517f08c379a0000000000000000000000000000000000000000000000000000000008152600401610c5a90612243565b60405180910390fd5b600115158260600151151503610c8757610c8582604001518360200151610f60565b505b600015158260600151151503610ca157610c9f611135565b505b816000015173ffffffffffffffffffffffffffffffffffffffff1663a9059cbb73ba12222222228d8ba445958a75a0704d566bf2c886600081518110610cea57610ce9611c35565b5b60200260200101518560200151610d01919061219d565b6040518363ffffffff1660e01b8152600401610d1e929190611dbe565b6020604051808303816000875af1158015610d3d573d6000803e3d6000fd5b505050506040513d601f19601f82011682018060405250810190610d619190611e13565b50505050505050565b600060405180608001604052808673ffffffffffffffffffffffffffffffffffffffff168152602001858152602001848152602001831515815250604051602001610db591906122c7565b60405160208183030381529060405290506000600167ffffffffffffffff811115610de357610de26116bd565b5b604051908082528060200260200182016040528015610e115781602001602082028036833780820191505090505b5090508581600081518110610e2957610e28611c35565b5b602002602001019073ffffffffffffffffffffffffffffffffffffffff16908173ffffffffffffffffffffffffffffffffffffffff16815250506000600167ffffffffffffffff811115610e8057610e7f6116bd565b5b604051908082528060200260200182016040528015610eae5781602001602082028036833780820191505090505b5090508581600081518110610ec657610ec5611c35565b5b60200260200101818152505073ba12222222228d8ba445958a75a0704d566bf2c873ffffffffffffffffffffffffffffffffffffffff16635c38449e308484876040518563ffffffff1660e01b8152600401610f2594939291906124f0565b600060405180830381600087803b158015610f3f57600080fd5b505af1158015610f53573d6000803e3d6000fd5b5050505050505050505050565b600073833589fcd6edb6e08f4c7c32d4f71b54bda0291373ffffffffffffffffffffffffffffffffffffffff1663095ea7b373edc817a28e8b93b03976fbd4a3ddbc9f7d176c22856040518363ffffffff1660e01b8152600401610fc5929190611dbe565b6020604051808303816000875af1158015610fe4573d6000803e3d6000fd5b505050506040513d601f19601f820116820180604052508101906110089190611e13565b5073edc817a28e8b93b03976fbd4a3ddbc9f7d176c2273ffffffffffffffffffffffffffffffffffffffff1663a0712d68846040518263ffffffff1660e01b8152600401611056919061254a565b6020604051808303816000875af1158015611075573d6000803e3d6000fd5b505050506040513d601f19601f820116820180604052508101906110999190611d82565b5073edc817a28e8b93b03976fbd4a3ddbc9f7d176c2273ffffffffffffffffffffffffffffffffffffffff1663c5ebeaec836040518263ffffffff1660e01b81526004016110e7919061254a565b6020604051808303816000875af1158015611106573d6000803e3d6000fd5b505050506040513d601f19601f8201168201806040525081019061112a9190611d82565b506001905092915050565b60008073edc817a28e8b93b03976fbd4a3ddbc9f7d176c2273ffffffffffffffffffffffffffffffffffffffff166317bfdfbc306040518263ffffffff1660e01b81526004016111859190611d52565b6020604051808303816000875af11580156111a4573d6000803e3d6000fd5b505050506040513d601f19601f820116820180604052508101906111c89190611d82565b905073833589fcd6edb6e08f4c7c32d4f71b54bda0291373ffffffffffffffffffffffffffffffffffffffff1663095ea7b373edc817a28e8b93b03976fbd4a3ddbc9f7d176c22836040518363ffffffff1660e01b815260040161122d929190611dbe565b6020604051808303816000875af115801561124c573d6000803e3d6000fd5b505050506040513d601f19601f820116820180604052508101906112709190611e13565b5073edc817a28e8b93b03976fbd4a3ddbc9f7d176c2273ffffffffffffffffffffffffffffffffffffffff16630e752702826040518263ffffffff1660e01b81526004016112be919061254a565b6020604051808303816000875af11580156112dd573d6000803e3d6000fd5b505050506040513d601f19601f820116820180604052508101906113019190611d82565b5073edc817a28e8b93b03976fbd4a3ddbc9f7d176c2273ffffffffffffffffffffffffffffffffffffffff166370a08231306040518263ffffffff1660e01b815260040161134f9190611d52565b602060405180830381865afa15801561136c573d6000803e3d6000fd5b505050506040513d601f19601f820116820180604052508101906113909190611d82565b905073edc817a28e8b93b03976fbd4a3ddbc9f7d176c2273ffffffffffffffffffffffffffffffffffffffff1663db006a75826040518263ffffffff1660e01b81526004016113df919061254a565b6020604051808303816000875af11580156113fe573d6000803e3d6000fd5b505050506040513d601f19601f820116820180604052508101906114229190611d82565b50600191505090565b6000604051905090565b600080fd5b600080fd5b6000819050919050565b6114528161143f565b811461145d57600080fd5b50565b60008135905061146f81611449565b92915050565b60006020828403121561148b5761148a611435565b5b600061149984828501611460565b91505092915050565b60008115159050919050565b6114b7816114a2565b82525050565b60006020820190506114d260008301846114ae565b92915050565b600073ffffffffffffffffffffffffffffffffffffffff82169050919050565b6000611503826114d8565b9050919050565b611513816114f8565b811461151e57600080fd5b50565b6000813590506115308161150a565b92915050565b60006020828403121561154c5761154b611435565b5b600061155a84828501611521565b91505092915050565b600081519050919050565b600082825260208201905092915050565b6000819050602082019050919050565b611598816114f8565b82525050565b6115a78161143f565b82525050565b6080820160008201516115c3600085018261158f565b5060208201516115d6602085018261159e565b5060408201516115e9604085018261159e565b5060608201516115fc606085018261159e565b50505050565b600061160e83836115ad565b60808301905092915050565b6000602082019050919050565b600061163282611563565b61163c818561156e565b93506116478361157f565b8060005b8381101561167857815161165f8882611602565b975061166a8361161a565b92505060018101905061164b565b5085935050505092915050565b6000602082019050818103600083015261169f8184611627565b905092915050565b600080fd5b6000601f19601f8301169050919050565b7f4e487b7100000000000000000000000000000000000000000000000000000000600052604160045260246000fd5b6116f5826116ac565b810181811067ffffffffffffffff82111715611714576117136116bd565b5b80604052505050565b600061172761142b565b905061173382826116ec565b919050565b600067ffffffffffffffff821115611753576117526116bd565b5b602082029050602081019050919050565b600080fd5b6000611774826114f8565b9050919050565b61178481611769565b811461178f57600080fd5b50565b6000813590506117a18161177b565b92915050565b60006117ba6117b584611738565b61171d565b905080838252602082019050602084028301858111156117dd576117dc611764565b5b835b8181101561180657806117f28882611792565b8452602084019350506020810190506117df565b5050509392505050565b600082601f830112611825576118246116a7565b5b81356118358482602086016117a7565b91505092915050565b600067ffffffffffffffff821115611859576118586116bd565b5b602082029050602081019050919050565b600061187d6118788461183e565b61171d565b905080838252602082019050602084028301858111156118a05761189f611764565b5b835b818110156118c957806118b58882611460565b8452602084019350506020810190506118a2565b5050509392505050565b600082601f8301126118e8576118e76116a7565b5b81356118f884826020860161186a565b91505092915050565b600080fd5b600067ffffffffffffffff821115611921576119206116bd565b5b61192a826116ac565b9050602081019050919050565b82818337600083830152505050565b600061195961195484611906565b61171d565b90508281526020810184848401111561197557611974611901565b5b611980848285611937565b509392505050565b600082601f83011261199d5761199c6116a7565b5b81356119ad848260208601611946565b91505092915050565b600080600080608085870312156119d0576119cf611435565b5b600085013567ffffffffffffffff8111156119ee576119ed61143a565b5b6119fa87828801611810565b945050602085013567ffffffffffffffff811115611a1b57611a1a61143a565b5b611a27878288016118d3565b935050604085013567ffffffffffffffff811115611a4857611a4761143a565b5b611a54878288016118d3565b925050606085013567ffffffffffffffff811115611a7557611a7461143a565b5b611a8187828801611988565b91505092959194509250565b600082825260208201905092915050565b7f4c65766572616765645969656c644661726d3a2063616c6c6572206973206e6f60008201527f7420746865206f776e6572210000000000000000000000000000000000000000602082015250565b6000611afa602c83611a8d565b9150611b0582611a9e565b604082019050919050565b60006020820190508181036000830152611b2981611aed565b9050919050565b7f4e487b7100000000000000000000000000000000000000000000000000000000600052601160045260246000fd5b6000611b6a8261143f565b9150611b758361143f565b9250828202611b838161143f565b91508282048414831517611b9a57611b99611b30565b5b5092915050565b7f4e487b7100000000000000000000000000000000000000000000000000000000600052601260045260246000fd5b6000611bdb8261143f565b9150611be68361143f565b925082611bf657611bf5611ba1565b5b828204905092915050565b6000611c0c8261143f565b9150611c178361143f565b9250828203905081811115611c2f57611c2e611b30565b5b92915050565b7f4e487b7100000000000000000000000000000000000000000000000000000000600052603260045260246000fd5b611c6d816114f8565b82525050565b600081519050919050565b600082825260208201905092915050565b6000819050602082019050919050565b6000611cab838361158f565b60208301905092915050565b6000602082019050919050565b6000611ccf82611c73565b611cd98185611c7e565b9350611ce483611c8f565b8060005b83811015611d15578151611cfc8882611c9f565b9750611d0783611cb7565b925050600181019050611ce8565b5085935050505092915050565b6000604082019050611d376000830185611c64565b8181036020830152611d498184611cc4565b90509392505050565b6000602082019050611d676000830184611c64565b92915050565b600081519050611d7c81611449565b92915050565b600060208284031215611d9857611d97611435565b5b6000611da684828501611d6d565b91505092915050565b611db88161143f565b82525050565b6000604082019050611dd36000830185611c64565b611de06020830184611daf565b9392505050565b611df0816114a2565b8114611dfb57600080fd5b50565b600081519050611e0d81611de7565b92915050565b600060208284031215611e2957611e28611435565b5b6000611e3784828501611dfe565b91505092915050565b6000819050919050565b6000611e65611e60611e5b846114d8565b611e40565b6114d8565b9050919050565b6000611e7782611e4a565b9050919050565b6000611e8982611e6c565b9050919050565b611e9981611e7e565b82525050565b6000604082019050611eb46000830185611e90565b611ec16020830184611c64565b9392505050565b600067ffffffffffffffff821115611ee357611ee26116bd565b5b602082029050602081019050919050565b600080fd5b600081519050611f088161150a565b92915050565b600060808284031215611f2457611f23611ef4565b5b611f2e608061171d565b90506000611f3e84828501611ef9565b6000830152506020611f5284828501611d6d565b6020830152506040611f6684828501611d6d565b6040830152506060611f7a84828501611d6d565b60608301525092915050565b6000611f99611f9484611ec8565b61171d565b90508083825260208201905060808402830185811115611fbc57611fbb611764565b5b835b81811015611fe55780611fd18882611f0e565b845260208401935050608081019050611fbe565b5050509392505050565b600082601f830112612004576120036116a7565b5b8151612014848260208601611f86565b91505092915050565b60006020828403121561203357612032611435565b5b600082015167ffffffffffffffff8111156120515761205061143a565b5b61205d84828501611fef565b91505092915050565b7f4c65766572616765645969656c644661726d3a204e6f742042616c616e63657260008201527f2100000000000000000000000000000000000000000000000000000000000000602082015250565b60006120c2602183611a8d565b91506120cd82612066565b604082019050919050565b600060208201905081810360008301526120f1816120b5565b9050919050565b60006080828403121561210e5761210d611ef4565b5b612118608061171d565b9050600061212884828501611ef9565b600083015250602061213c84828501611d6d565b602083015250604061215084828501611d6d565b604083015250606061216484828501611dfe565b60608301525092915050565b60006080828403121561218657612185611435565b5b6000612194848285016120f8565b91505092915050565b60006121a88261143f565b91506121b38361143f565b92508282019050808211156121cb576121ca611b30565b5b92915050565b7f4c65766572616765645969656c644661726d3a204e6f7420656e6f756768206660008201527f756e647320746f2072657061792042616c616e636572206c6f616e2100000000602082015250565b600061222d603c83611a8d565b9150612238826121d1565b604082019050919050565b6000602082019050818103600083015261225c81612220565b9050919050565b61226c816114a2565b82525050565b608082016000820151612288600085018261158f565b50602082015161229b602085018261159e565b5060408201516122ae604085018261159e565b5060608201516122c16060850182612263565b50505050565b60006080820190506122dc6000830184612272565b92915050565b60006122ed82611e6c565b9050919050565b6122fd816122e2565b82525050565b600081519050919050565b6000819050602082019050919050565b600061232982611e6c565b9050919050565b6123398161231e565b82525050565b600061234b8383612330565b60208301905092915050565b6000602082019050919050565b600061236f82612303565b6123798185611c7e565b93506123848361230e565b8060005b838110156123b557815161239c888261233f565b97506123a783612357565b925050600181019050612388565b5085935050505092915050565b600081519050919050565b600082825260208201905092915050565b6000819050602082019050919050565b60006123fa838361159e565b60208301905092915050565b6000602082019050919050565b600061241e826123c2565b61242881856123cd565b9350612433836123de565b8060005b8381101561246457815161244b88826123ee565b975061245683612406565b925050600181019050612437565b5085935050505092915050565b600081519050919050565b600082825260208201905092915050565b60005b838110156124ab578082015181840152602081019050612490565b60008484015250505050565b60006124c282612471565b6124cc818561247c565b93506124dc81856020860161248d565b6124e5816116ac565b840191505092915050565b600060808201905061250560008301876122f4565b81810360208301526125178186612364565b9050818103604083015261252b8185612413565b9050818103606083015261253f81846124b7565b905095945050505050565b600060208201905061255f6000830184611daf565b9291505056fea264697066735822122081be7ea7df0ebae28762498bb1f2b508acfac9c1eae0c5502553034de403f8f164736f6c63430008120033",
  "linkReferences": {},
  "deployedLinkReferences": {}
}